{
  "contractName": "MiamiAfterDark",
  "abi": [
    {
      "inputs": [],
      "stateMutability": "nonpayable",
      "type": "constructor"
    },
    {
      "anonymous": false,
      "inputs": [
        {
          "indexed": true,
          "internalType": "address",
          "name": "owner",
          "type": "address"
        },
        {
          "indexed": true,
          "internalType": "address",
          "name": "approved",
          "type": "address"
        },
        {
          "indexed": true,
          "internalType": "uint256",
          "name": "tokenId",
          "type": "uint256"
        }
      ],
      "name": "Approval",
      "type": "event"
    },
    {
      "anonymous": false,
      "inputs": [
        {
          "indexed": true,
          "internalType": "address",
          "name": "owner",
          "type": "address"
        },
        {
          "indexed": true,
          "internalType": "address",
          "name": "operator",
          "type": "address"
        },
        {
          "indexed": false,
          "internalType": "bool",
          "name": "approved",
          "type": "bool"
        }
      ],
      "name": "ApprovalForAll",
      "type": "event"
    },
    {
      "anonymous": false,
      "inputs": [
        {
          "indexed": true,
          "internalType": "address",
          "name": "previousOwner",
          "type": "address"
        },
        {
          "indexed": true,
          "internalType": "address",
          "name": "newOwner",
          "type": "address"
        }
      ],
      "name": "OwnershipTransferred",
      "type": "event"
    },
    {
      "anonymous": false,
      "inputs": [
        {
          "indexed": true,
          "internalType": "address",
          "name": "from",
          "type": "address"
        },
        {
          "indexed": true,
          "internalType": "address",
          "name": "to",
          "type": "address"
        },
        {
          "indexed": true,
          "internalType": "uint256",
          "name": "tokenId",
          "type": "uint256"
        }
      ],
      "name": "Transfer",
      "type": "event"
    },
    {
      "inputs": [],
      "name": "MAX_MINTABLE_PER_USER",
      "outputs": [
        {
          "internalType": "uint256",
          "name": "",
          "type": "uint256"
        }
      ],
      "stateMutability": "view",
      "type": "function",
      "constant": true
    },
    {
      "inputs": [],
      "name": "PRICE",
      "outputs": [
        {
          "internalType": "uint256",
          "name": "",
          "type": "uint256"
        }
      ],
      "stateMutability": "view",
      "type": "function",
      "constant": true
    },
    {
      "inputs": [
        {
          "internalType": "address",
          "name": "to",
          "type": "address"
        },
        {
          "internalType": "uint256",
          "name": "tokenId",
          "type": "uint256"
        }
      ],
      "name": "approve",
      "outputs": [],
      "stateMutability": "nonpayable",
      "type": "function"
    },
    {
      "inputs": [
        {
          "internalType": "address",
          "name": "owner",
          "type": "address"
        }
      ],
      "name": "balanceOf",
      "outputs": [
        {
          "internalType": "uint256",
          "name": "",
          "type": "uint256"
        }
      ],
      "stateMutability": "view",
      "type": "function",
      "constant": true
    },
    {
      "inputs": [
        {
          "internalType": "uint256",
          "name": "tokenId",
          "type": "uint256"
        }
      ],
      "name": "burn",
      "outputs": [],
      "stateMutability": "nonpayable",
      "type": "function"
    },
    {
      "inputs": [
        {
          "internalType": "uint256",
          "name": "tokenId",
          "type": "uint256"
        }
      ],
      "name": "getApproved",
      "outputs": [
        {
          "internalType": "address",
          "name": "",
          "type": "address"
        }
      ],
      "stateMutability": "view",
      "type": "function",
      "constant": true
    },
    {
      "inputs": [
        {
          "internalType": "address",
          "name": "owner",
          "type": "address"
        },
        {
          "internalType": "address",
          "name": "operator",
          "type": "address"
        }
      ],
      "name": "isApprovedForAll",
      "outputs": [
        {
          "internalType": "bool",
          "name": "",
          "type": "bool"
        }
      ],
      "stateMutability": "view",
      "type": "function",
      "constant": true
    },
    {
      "inputs": [],
      "name": "name",
      "outputs": [
        {
          "internalType": "string",
          "name": "",
          "type": "string"
        }
      ],
      "stateMutability": "view",
      "type": "function",
      "constant": true
    },
    {
      "inputs": [],
      "name": "owner",
      "outputs": [
        {
          "internalType": "address",
          "name": "",
          "type": "address"
        }
      ],
      "stateMutability": "view",
      "type": "function",
      "constant": true
    },
    {
      "inputs": [
        {
          "internalType": "uint256",
          "name": "tokenId",
          "type": "uint256"
        }
      ],
      "name": "ownerOf",
      "outputs": [
        {
          "internalType": "address",
          "name": "",
          "type": "address"
        }
      ],
      "stateMutability": "view",
      "type": "function",
      "constant": true
    },
    {
      "inputs": [],
      "name": "presaleLive",
      "outputs": [
        {
          "internalType": "bool",
          "name": "",
          "type": "bool"
        }
      ],
      "stateMutability": "view",
      "type": "function",
      "constant": true
    },
    {
      "inputs": [
        {
          "internalType": "address",
          "name": "",
          "type": "address"
        }
      ],
      "name": "presalerListPurchases",
      "outputs": [
        {
          "internalType": "uint256",
          "name": "",
          "type": "uint256"
        }
      ],
      "stateMutability": "view",
      "type": "function",
      "constant": true
    },
    {
      "inputs": [],
      "name": "renounceOwnership",
      "outputs": [],
      "stateMutability": "nonpayable",
      "type": "function"
    },
    {
      "inputs": [
        {
          "internalType": "address",
          "name": "from",
          "type": "address"
        },
        {
          "internalType": "address",
          "name": "to",
          "type": "address"
        },
        {
          "internalType": "uint256",
          "name": "tokenId",
          "type": "uint256"
        }
      ],
      "name": "safeTransferFrom",
      "outputs": [],
      "stateMutability": "nonpayable",
      "type": "function"
    },
    {
      "inputs": [
        {
          "internalType": "address",
          "name": "from",
          "type": "address"
        },
        {
          "internalType": "address",
          "name": "to",
          "type": "address"
        },
        {
          "internalType": "uint256",
          "name": "tokenId",
          "type": "uint256"
        },
        {
          "internalType": "bytes",
          "name": "_data",
          "type": "bytes"
        }
      ],
      "name": "safeTransferFrom",
      "outputs": [],
      "stateMutability": "nonpayable",
      "type": "function"
    },
    {
      "inputs": [],
      "name": "saleLive",
      "outputs": [
        {
          "internalType": "bool",
          "name": "",
          "type": "bool"
        }
      ],
      "stateMutability": "view",
      "type": "function",
      "constant": true
    },
    {
      "inputs": [
        {
          "internalType": "address",
          "name": "operator",
          "type": "address"
        },
        {
          "internalType": "bool",
          "name": "approved",
          "type": "bool"
        }
      ],
      "name": "setApprovalForAll",
      "outputs": [],
      "stateMutability": "nonpayable",
      "type": "function"
    },
    {
      "inputs": [
        {
          "internalType": "bytes4",
          "name": "interfaceId",
          "type": "bytes4"
        }
      ],
      "name": "supportsInterface",
      "outputs": [
        {
          "internalType": "bool",
          "name": "",
          "type": "bool"
        }
      ],
      "stateMutability": "view",
      "type": "function",
      "constant": true
    },
    {
      "inputs": [],
      "name": "symbol",
      "outputs": [
        {
          "internalType": "string",
          "name": "",
          "type": "string"
        }
      ],
      "stateMutability": "view",
      "type": "function",
      "constant": true
    },
    {
      "inputs": [
        {
          "internalType": "uint256",
          "name": "tokenId",
          "type": "uint256"
        }
      ],
      "name": "tokenURI",
      "outputs": [
        {
          "internalType": "string",
          "name": "",
          "type": "string"
        }
      ],
      "stateMutability": "view",
      "type": "function",
      "constant": true
    },
    {
      "inputs": [],
      "name": "totalSupply",
      "outputs": [
        {
          "internalType": "uint256",
          "name": "",
          "type": "uint256"
        }
      ],
      "stateMutability": "view",
      "type": "function",
      "constant": true
    },
    {
      "inputs": [
        {
          "internalType": "address",
          "name": "from",
          "type": "address"
        },
        {
          "internalType": "address",
          "name": "to",
          "type": "address"
        },
        {
          "internalType": "uint256",
          "name": "tokenId",
          "type": "uint256"
        }
      ],
      "name": "transferFrom",
      "outputs": [],
      "stateMutability": "nonpayable",
      "type": "function"
    },
    {
      "inputs": [
        {
          "internalType": "address",
          "name": "newOwner",
          "type": "address"
        }
      ],
      "name": "transferOwnership",
      "outputs": [],
      "stateMutability": "nonpayable",
      "type": "function"
    },
    {
      "inputs": [
        {
          "internalType": "string",
          "name": "URI",
          "type": "string"
        }
      ],
      "name": "setBaseURI",
      "outputs": [],
      "stateMutability": "nonpayable",
      "type": "function"
    },
    {
      "inputs": [],
      "name": "startPresale",
      "outputs": [],
      "stateMutability": "nonpayable",
      "type": "function"
    },
    {
      "inputs": [],
      "name": "startSale",
      "outputs": [],
      "stateMutability": "nonpayable",
      "type": "function"
    },
    {
      "inputs": [
        {
          "internalType": "uint256",
          "name": "tokenQuantity",
          "type": "uint256"
        }
      ],
      "name": "buy",
      "outputs": [],
      "stateMutability": "payable",
      "type": "function",
      "payable": true
    },
    {
      "inputs": [
        {
          "internalType": "uint256",
          "name": "tokenId",
          "type": "uint256"
        }
      ],
      "name": "refundMe",
      "outputs": [],
      "stateMutability": "nonpayable",
      "type": "function"
    },
    {
      "inputs": [
        {
          "internalType": "uint256",
          "name": "tokenQuantity",
          "type": "uint256"
        }
      ],
      "name": "presaleBuy",
      "outputs": [],
      "stateMutability": "payable",
      "type": "function",
      "payable": true
    },
    {
      "inputs": [],
      "name": "getMinted",
      "outputs": [
        {
          "internalType": "uint256",
          "name": "",
          "type": "uint256"
        }
      ],
      "stateMutability": "view",
      "type": "function",
      "constant": true
    },
    {
      "inputs": [],
      "name": "withdraw",
      "outputs": [],
      "stateMutability": "nonpayable",
      "type": "function"
    }
  ],
  "bytecode": "0x6080604052600560095567011c37937e080000600a55612710600b553480156200002857600080fd5b506040518060400160405280601081526020017f4d69616d69204166746572204461726b000000000000000000000000000000008152506040518060400160405280600381526020017f4d414400000000000000000000000000000000000000000000000000000000008152508160009080519060200190620000ad929190620001bd565b508060019080519060200190620000c6929190620001bd565b505050620000e9620000dd620000ef60201b60201c565b620000f760201b60201c565b620002d2565b600033905090565b6000600660009054906101000a900473ffffffffffffffffffffffffffffffffffffffff16905081600660006101000a81548173ffffffffffffffffffffffffffffffffffffffff021916908373ffffffffffffffffffffffffffffffffffffffff1602179055508173ffffffffffffffffffffffffffffffffffffffff168173ffffffffffffffffffffffffffffffffffffffff167f8be0079c531659141344cd1fd0a4f28419497f9722a3daafe3b4186f6b6457e060405160405180910390a35050565b828054620001cb906200029c565b90600052602060002090601f016020900481019282620001ef57600085556200023b565b82601f106200020a57805160ff19168380011785556200023b565b828001600101855582156200023b579182015b828111156200023a5782518255916020019190600101906200021d565b5b5090506200024a91906200024e565b5090565b5b80821115620002695760008160009055506001016200024f565b5090565b7f4e487b7100000000000000000000000000000000000000000000000000000000600052602260045260246000fd5b60006002820490506001821680620002b557607f821691505b60208210811415620002cc57620002cb6200026d565b5b50919050565b613c5380620002e26000396000f3fe6080604052600436106101d85760003560e01c8063715018a611610102578063ac72200d11610095578063d96a094a11610064578063d96a094a14610663578063e081b7811461067f578063e985e9c5146106aa578063f2fde38b146106e7576101d8565b8063ac72200d146105bb578063b66a0e5d146105e6578063b88d4fde146105fd578063c87b56dd14610626576101d8565b80638da5cb5b116100d15780638da5cb5b146104ff57806395d89b411461052a5780639bf8031614610555578063a22cb46514610592576101d8565b8063715018a614610476578063815f7bbd1461048d57806383a9e049146104a95780638d859f3e146104d4576101d8565b80633ccfd60b1161017a578063600ab28b11610149578063600ab28b146103a8578063629921f5146103d15780636352211e146103fc57806370a0823114610439576101d8565b80633ccfd60b1461031657806342842e0e1461032d57806342966c681461035657806355f804b31461037f576101d8565b8063081812fc116101b6578063081812fc1461025c578063095ea7b31461029957806318160ddd146102c257806323b872dd146102ed576101d8565b806301ffc9a7146101dd57806304c98b2b1461021a57806306fdde0314610231575b600080fd5b3480156101e957600080fd5b5061020460048036038101906101ff9190612602565b610710565b604051610211919061264a565b60405180910390f35b34801561022657600080fd5b5061022f6107f2565b005b34801561023d57600080fd5b5061024661088b565b60405161025391906126fe565b60405180910390f35b34801561026857600080fd5b50610283600480360381019061027e9190612756565b61091d565b60405161029091906127c4565b60405180910390f35b3480156102a557600080fd5b506102c060048036038101906102bb919061280b565b6109a2565b005b3480156102ce57600080fd5b506102d7610aba565b6040516102e4919061285a565b60405180910390f35b3480156102f957600080fd5b50610314600480360381019061030f9190612875565b610ac0565b005b34801561032257600080fd5b5061032b610b20565b005b34801561033957600080fd5b50610354600480360381019061034f9190612875565b610bec565b005b34801561036257600080fd5b5061037d60048036038101906103789190612756565b610c0c565b005b34801561038b57600080fd5b506103a660048036038101906103a1919061292d565b610c68565b005b3480156103b457600080fd5b506103cf60048036038101906103ca9190612756565b610cfa565b005b3480156103dd57600080fd5b506103e6610d98565b6040516103f3919061285a565b60405180910390f35b34801561040857600080fd5b50610423600480360381019061041e9190612756565b610d9e565b60405161043091906127c4565b60405180910390f35b34801561044557600080fd5b50610460600480360381019061045b919061297a565b610e50565b60405161046d919061285a565b60405180910390f35b34801561048257600080fd5b5061048b610f08565b005b6104a760048036038101906104a29190612756565b610f90565b005b3480156104b557600080fd5b506104be6110e4565b6040516104cb919061264a565b60405180910390f35b3480156104e057600080fd5b506104e96110f7565b6040516104f6919061285a565b60405180910390f35b34801561050b57600080fd5b506105146110fd565b60405161052191906127c4565b60405180910390f35b34801561053657600080fd5b5061053f611127565b60405161054c91906126fe565b60405180910390f35b34801561056157600080fd5b5061057c6004803603810190610577919061297a565b6111b9565b604051610589919061285a565b60405180910390f35b34801561059e57600080fd5b506105b960048036038101906105b491906129d3565b6111d1565b005b3480156105c757600080fd5b506105d06111e7565b6040516105dd919061285a565b60405180910390f35b3480156105f257600080fd5b506105fb6111f8565b005b34801561060957600080fd5b50610624600480360381019061061f9190612b43565b611291565b005b34801561063257600080fd5b5061064d60048036038101906106489190612756565b6112f3565b60405161065a91906126fe565b60405180910390f35b61067d60048036038101906106789190612756565b61139a565b005b34801561068b57600080fd5b50610694611534565b6040516106a1919061264a565b60405180910390f35b3480156106b657600080fd5b506106d160048036038101906106cc9190612bc6565b611547565b6040516106de919061264a565b60405180910390f35b3480156106f357600080fd5b5061070e6004803603810190610709919061297a565b6115db565b005b60007f80ac58cd000000000000000000000000000000000000000000000000000000007bffffffffffffffffffffffffffffffffffffffffffffffffffffffff1916827bffffffffffffffffffffffffffffffffffffffffffffffffffffffff191614806107db57507f5b5e139f000000000000000000000000000000000000000000000000000000007bffffffffffffffffffffffffffffffffffffffffffffffffffffffff1916827bffffffffffffffffffffffffffffffffffffffffffffffffffffffff1916145b806107eb57506107ea826116d3565b5b9050919050565b6107fa61173d565b73ffffffffffffffffffffffffffffffffffffffff166108186110fd565b73ffffffffffffffffffffffffffffffffffffffff161461086e576040517f08c379a000000000000000000000000000000000000000000000000000000000815260040161086590612c52565b60405180910390fd5b6001600860006101000a81548160ff021916908315150217905550565b60606000805461089a90612ca1565b80601f01602080910402602001604051908101604052809291908181526020018280546108c690612ca1565b80156109135780601f106108e857610100808354040283529160200191610913565b820191906000526020600020905b8154815290600101906020018083116108f657829003601f168201915b5050505050905090565b600061092882611745565b610967576040517f08c379a000000000000000000000000000000000000000000000000000000000815260040161095e90612d45565b60405180910390fd5b6004600083815260200190815260200160002060009054906101000a900473ffffffffffffffffffffffffffffffffffffffff169050919050565b60006109ad82610d9e565b90508073ffffffffffffffffffffffffffffffffffffffff168373ffffffffffffffffffffffffffffffffffffffff161415610a1e576040517f08c379a0000000000000000000000000000000000000000000000000000000008152600401610a1590612dd7565b60405180910390fd5b8073ffffffffffffffffffffffffffffffffffffffff16610a3d61173d565b73ffffffffffffffffffffffffffffffffffffffff161480610a6c5750610a6b81610a6661173d565b611547565b5b610aab576040517f08c379a0000000000000000000000000000000000000000000000000000000008152600401610aa290612e69565b60405180910390fd5b610ab583836117b1565b505050565b600b5481565b610ad1610acb61173d565b8261186a565b610b10576040517f08c379a0000000000000000000000000000000000000000000000000000000008152600401610b0790612efb565b60405180910390fd5b610b1b838383611948565b505050565b610b2861173d565b73ffffffffffffffffffffffffffffffffffffffff16610b466110fd565b73ffffffffffffffffffffffffffffffffffffffff1614610b9c576040517f08c379a0000000000000000000000000000000000000000000000000000000008152600401610b9390612c52565b60405180910390fd5b610ba46110fd565b73ffffffffffffffffffffffffffffffffffffffff166108fc479081150290604051600060405180830381858888f19350505050158015610be9573d6000803e3d6000fd5b50565b610c0783838360405180602001604052806000815250611291565b505050565b610c1d610c1761173d565b8261186a565b610c5c576040517f08c379a0000000000000000000000000000000000000000000000000000000008152600401610c5390612f8d565b60405180910390fd5b610c6581611ba4565b50565b610c7061173d565b73ffffffffffffffffffffffffffffffffffffffff16610c8e6110fd565b73ffffffffffffffffffffffffffffffffffffffff1614610ce4576040517f08c379a0000000000000000000000000000000000000000000000000000000008152600401610cdb90612c52565b60405180910390fd5b8181600c9190610cf59291906124f3565b505050565b610d04338261186a565b610d43576040517f08c379a0000000000000000000000000000000000000000000000000000000008152600401610d3a9061301f565b60405180910390fd5b610d4c81611ba4565b3373ffffffffffffffffffffffffffffffffffffffff166108fc600a549081150290604051600060405180830381858888f19350505050158015610d94573d6000803e3d6000fd5b5050565b60095481565b6000806002600084815260200190815260200160002060009054906101000a900473ffffffffffffffffffffffffffffffffffffffff169050600073ffffffffffffffffffffffffffffffffffffffff168173ffffffffffffffffffffffffffffffffffffffff161415610e47576040517f08c379a0000000000000000000000000000000000000000000000000000000008152600401610e3e906130b1565b60405180910390fd5b80915050919050565b60008073ffffffffffffffffffffffffffffffffffffffff168273ffffffffffffffffffffffffffffffffffffffff161415610ec1576040517f08c379a0000000000000000000000000000000000000000000000000000000008152600401610eb890613143565b60405180910390fd5b600360008373ffffffffffffffffffffffffffffffffffffffff1673ffffffffffffffffffffffffffffffffffffffff168152602001908152602001600020549050919050565b610f1061173d565b73ffffffffffffffffffffffffffffffffffffffff16610f2e6110fd565b73ffffffffffffffffffffffffffffffffffffffff1614610f84576040517f08c379a0000000000000000000000000000000000000000000000000000000008152600401610f7b90612c52565b60405180910390fd5b610f8e6000611cb5565b565b600860019054906101000a900460ff16158015610fb95750600860009054906101000a900460ff165b610ff8576040517f08c379a0000000000000000000000000000000000000000000000000000000008152600401610fef906131af565b60405180910390fd5b60095481600d60003373ffffffffffffffffffffffffffffffffffffffff1673ffffffffffffffffffffffffffffffffffffffff1681526020019081526020016000205461104691906131fe565b1115611087576040517f08c379a000000000000000000000000000000000000000000000000000000000815260040161107e906132a0565b60405180910390fd5b3481600a5461109691906132c0565b11156110d7576040517f08c379a00000000000000000000000000000000000000000000000000000000081526004016110ce90613366565b60405180910390fd5b6110e13382611d7b565b50565b600860009054906101000a900460ff1681565b600a5481565b6000600660009054906101000a900473ffffffffffffffffffffffffffffffffffffffff16905090565b60606001805461113690612ca1565b80601f016020809104026020016040519081016040528092919081815260200182805461116290612ca1565b80156111af5780601f10611184576101008083540402835291602001916111af565b820191906000526020600020905b81548152906001019060200180831161119257829003601f168201915b5050505050905090565b600d6020528060005260406000206000915090505481565b6111e36111dc61173d565b8383611e17565b5050565b60006111f36007611f84565b905090565b61120061173d565b73ffffffffffffffffffffffffffffffffffffffff1661121e6110fd565b73ffffffffffffffffffffffffffffffffffffffff1614611274576040517f08c379a000000000000000000000000000000000000000000000000000000000815260040161126b90612c52565b60405180910390fd5b6001600860016101000a81548160ff021916908315150217905550565b6112a261129c61173d565b8361186a565b6112e1576040517f08c379a00000000000000000000000000000000000000000000000000000000081526004016112d890612efb565b60405180910390fd5b6112ed84848484611f92565b50505050565b60606112fe82611745565b61133d576040517f08c379a0000000000000000000000000000000000000000000000000000000008152600401611334906133f8565b60405180910390fd5b6000611347611fee565b905060008151116113675760405180602001604052806000815250611392565b806113718461200e565b604051602001611382929190613454565b6040516020818303038152906040525b915050919050565b600860019054906101000a900460ff166113e9576040517f08c379a00000000000000000000000000000000000000000000000000000000081526004016113e0906134c4565b60405180910390fd5b600860009054906101000a900460ff1615611439576040517f08c379a000000000000000000000000000000000000000000000000000000000815260040161143090613530565b60405180910390fd5b60095481111561147e576040517f08c379a0000000000000000000000000000000000000000000000000000000008152600401611475906132a0565b60405180910390fd5b3481600a5461148d91906132c0565b11156114ce576040517f08c379a00000000000000000000000000000000000000000000000000000000081526004016114c590613366565b60405180910390fd5b600b54816114dc6007611f84565b6114e691906131fe565b1115611527576040517f08c379a000000000000000000000000000000000000000000000000000000000815260040161151e9061359c565b60405180910390fd5b6115313382611d7b565b50565b600860019054906101000a900460ff1681565b6000600560008473ffffffffffffffffffffffffffffffffffffffff1673ffffffffffffffffffffffffffffffffffffffff16815260200190815260200160002060008373ffffffffffffffffffffffffffffffffffffffff1673ffffffffffffffffffffffffffffffffffffffff16815260200190815260200160002060009054906101000a900460ff16905092915050565b6115e361173d565b73ffffffffffffffffffffffffffffffffffffffff166116016110fd565b73ffffffffffffffffffffffffffffffffffffffff1614611657576040517f08c379a000000000000000000000000000000000000000000000000000000000815260040161164e90612c52565b60405180910390fd5b600073ffffffffffffffffffffffffffffffffffffffff168173ffffffffffffffffffffffffffffffffffffffff1614156116c7576040517f08c379a00000000000000000000000000000000000000000000000000000000081526004016116be9061362e565b60405180910390fd5b6116d081611cb5565b50565b60007f01ffc9a7000000000000000000000000000000000000000000000000000000007bffffffffffffffffffffffffffffffffffffffffffffffffffffffff1916827bffffffffffffffffffffffffffffffffffffffffffffffffffffffff1916149050919050565b600033905090565b60008073ffffffffffffffffffffffffffffffffffffffff166002600084815260200190815260200160002060009054906101000a900473ffffffffffffffffffffffffffffffffffffffff1673ffffffffffffffffffffffffffffffffffffffff1614159050919050565b816004600083815260200190815260200160002060006101000a81548173ffffffffffffffffffffffffffffffffffffffff021916908373ffffffffffffffffffffffffffffffffffffffff160217905550808273ffffffffffffffffffffffffffffffffffffffff1661182483610d9e565b73ffffffffffffffffffffffffffffffffffffffff167f8c5be1e5ebec7d5bd14f71427d1e84f3dd0314c0f7b2291e5b200ac8c7c3b92560405160405180910390a45050565b600061187582611745565b6118b4576040517f08c379a00000000000000000000000000000000000000000000000000000000081526004016118ab906136c0565b60405180910390fd5b60006118bf83610d9e565b90508073ffffffffffffffffffffffffffffffffffffffff168473ffffffffffffffffffffffffffffffffffffffff16148061192e57508373ffffffffffffffffffffffffffffffffffffffff166119168461091d565b73ffffffffffffffffffffffffffffffffffffffff16145b8061193f575061193e8185611547565b5b91505092915050565b8273ffffffffffffffffffffffffffffffffffffffff1661196882610d9e565b73ffffffffffffffffffffffffffffffffffffffff16146119be576040517f08c379a00000000000000000000000000000000000000000000000000000000081526004016119b590613752565b60405180910390fd5b600073ffffffffffffffffffffffffffffffffffffffff168273ffffffffffffffffffffffffffffffffffffffff161415611a2e576040517f08c379a0000000000000000000000000000000000000000000000000000000008152600401611a25906137e4565b60405180910390fd5b611a3983838361216f565b611a446000826117b1565b6001600360008573ffffffffffffffffffffffffffffffffffffffff1673ffffffffffffffffffffffffffffffffffffffff1681526020019081526020016000206000828254611a949190613804565b925050819055506001600360008473ffffffffffffffffffffffffffffffffffffffff1673ffffffffffffffffffffffffffffffffffffffff1681526020019081526020016000206000828254611aeb91906131fe565b92505081905550816002600083815260200190815260200160002060006101000a81548173ffffffffffffffffffffffffffffffffffffffff021916908373ffffffffffffffffffffffffffffffffffffffff160217905550808273ffffffffffffffffffffffffffffffffffffffff168473ffffffffffffffffffffffffffffffffffffffff167fddf252ad1be2c89b69c2b068fc378daa952ba7f163c4a11628f55a4df523b3ef60405160405180910390a4505050565b6000611baf82610d9e565b9050611bbd8160008461216f565b611bc86000836117b1565b6001600360008373ffffffffffffffffffffffffffffffffffffffff1673ffffffffffffffffffffffffffffffffffffffff1681526020019081526020016000206000828254611c189190613804565b925050819055506002600083815260200190815260200160002060006101000a81549073ffffffffffffffffffffffffffffffffffffffff021916905581600073ffffffffffffffffffffffffffffffffffffffff168273ffffffffffffffffffffffffffffffffffffffff167fddf252ad1be2c89b69c2b068fc378daa952ba7f163c4a11628f55a4df523b3ef60405160405180910390a45050565b6000600660009054906101000a900473ffffffffffffffffffffffffffffffffffffffff16905081600660006101000a81548173ffffffffffffffffffffffffffffffffffffffff021916908373ffffffffffffffffffffffffffffffffffffffff1602179055508173ffffffffffffffffffffffffffffffffffffffff168173ffffffffffffffffffffffffffffffffffffffff167f8be0079c531659141344cd1fd0a4f28419497f9722a3daafe3b4186f6b6457e060405160405180910390a35050565b80600d60008473ffffffffffffffffffffffffffffffffffffffff1673ffffffffffffffffffffffffffffffffffffffff1681526020019081526020016000206000828254611dca91906131fe565b9250508190555060005b81811015611e12576000611de86007611f84565b9050611df46007612174565b611dfe848261218a565b508080611e0a90613838565b915050611dd4565b505050565b8173ffffffffffffffffffffffffffffffffffffffff168373ffffffffffffffffffffffffffffffffffffffff161415611e86576040517f08c379a0000000000000000000000000000000000000000000000000000000008152600401611e7d906138cd565b60405180910390fd5b80600560008573ffffffffffffffffffffffffffffffffffffffff1673ffffffffffffffffffffffffffffffffffffffff16815260200190815260200160002060008473ffffffffffffffffffffffffffffffffffffffff1673ffffffffffffffffffffffffffffffffffffffff16815260200190815260200160002060006101000a81548160ff0219169083151502179055508173ffffffffffffffffffffffffffffffffffffffff168373ffffffffffffffffffffffffffffffffffffffff167f17307eab39ab6107e8899845ad3d59bd9653f200f220920489ca2b5937696c3183604051611f77919061264a565b60405180910390a3505050565b600081600001549050919050565b611f9d848484611948565b611fa984848484612358565b611fe8576040517f08c379a0000000000000000000000000000000000000000000000000000000008152600401611fdf9061395f565b60405180910390fd5b50505050565b6060604051806060016040528060238152602001613bfb60239139905090565b60606000821415612056576040518060400160405280600181526020017f3000000000000000000000000000000000000000000000000000000000000000815250905061216a565b600082905060005b6000821461208857808061207190613838565b915050600a8261208191906139ae565b915061205e565b60008167ffffffffffffffff8111156120a4576120a3612a18565b5b6040519080825280601f01601f1916602001820160405280156120d65781602001600182028036833780820191505090505b5090505b60008514612163576001826120ef9190613804565b9150600a856120fe91906139df565b603061210a91906131fe565b60f81b8183815181106121205761211f613a10565b5b60200101907effffffffffffffffffffffffffffffffffffffffffffffffffffffffffffff1916908160001a905350600a8561215c91906139ae565b94506120da565b8093505050505b919050565b505050565b6001816000016000828254019250508190555050565b600073ffffffffffffffffffffffffffffffffffffffff168273ffffffffffffffffffffffffffffffffffffffff1614156121fa576040517f08c379a00000000000000000000000000000000000000000000000000000000081526004016121f190613a8b565b60405180910390fd5b61220381611745565b15612243576040517f08c379a000000000000000000000000000000000000000000000000000000000815260040161223a90613af7565b60405180910390fd5b61224f6000838361216f565b6001600360008473ffffffffffffffffffffffffffffffffffffffff1673ffffffffffffffffffffffffffffffffffffffff168152602001908152602001600020600082825461229f91906131fe565b92505081905550816002600083815260200190815260200160002060006101000a81548173ffffffffffffffffffffffffffffffffffffffff021916908373ffffffffffffffffffffffffffffffffffffffff160217905550808273ffffffffffffffffffffffffffffffffffffffff16600073ffffffffffffffffffffffffffffffffffffffff167fddf252ad1be2c89b69c2b068fc378daa952ba7f163c4a11628f55a4df523b3ef60405160405180910390a45050565b60006123798473ffffffffffffffffffffffffffffffffffffffff166124e0565b156124d3578373ffffffffffffffffffffffffffffffffffffffff1663150b7a026123a261173d565b8786866040518563ffffffff1660e01b81526004016123c49493929190613b6c565b6020604051808303816000875af192505050801561240057506040513d601f19601f820116820180604052508101906123fd9190613bcd565b60015b612483573d8060008114612430576040519150601f19603f3d011682016040523d82523d6000602084013e612435565b606091505b5060008151141561247b576040517f08c379a00000000000000000000000000000000000000000000000000000000081526004016124729061395f565b60405180910390fd5b805181602001fd5b63150b7a0260e01b7bffffffffffffffffffffffffffffffffffffffffffffffffffffffff1916817bffffffffffffffffffffffffffffffffffffffffffffffffffffffff1916149150506124d8565b600190505b949350505050565b600080823b905060008111915050919050565b8280546124ff90612ca1565b90600052602060002090601f0160209004810192826125215760008555612568565b82601f1061253a57803560ff1916838001178555612568565b82800160010185558215612568579182015b8281111561256757823582559160200191906001019061254c565b5b5090506125759190612579565b5090565b5b8082111561259257600081600090555060010161257a565b5090565b6000604051905090565b600080fd5b600080fd5b60007fffffffff0000000000000000000000000000000000000000000000000000000082169050919050565b6125df816125aa565b81146125ea57600080fd5b50565b6000813590506125fc816125d6565b92915050565b600060208284031215612618576126176125a0565b5b6000612626848285016125ed565b91505092915050565b60008115159050919050565b6126448161262f565b82525050565b600060208201905061265f600083018461263b565b92915050565b600081519050919050565b600082825260208201905092915050565b60005b8381101561269f578082015181840152602081019050612684565b838111156126ae576000848401525b50505050565b6000601f19601f8301169050919050565b60006126d082612665565b6126da8185612670565b93506126ea818560208601612681565b6126f3816126b4565b840191505092915050565b6000602082019050818103600083015261271881846126c5565b905092915050565b6000819050919050565b61273381612720565b811461273e57600080fd5b50565b6000813590506127508161272a565b92915050565b60006020828403121561276c5761276b6125a0565b5b600061277a84828501612741565b91505092915050565b600073ffffffffffffffffffffffffffffffffffffffff82169050919050565b60006127ae82612783565b9050919050565b6127be816127a3565b82525050565b60006020820190506127d960008301846127b5565b92915050565b6127e8816127a3565b81146127f357600080fd5b50565b600081359050612805816127df565b92915050565b60008060408385031215612822576128216125a0565b5b6000612830858286016127f6565b925050602061284185828601612741565b9150509250929050565b61285481612720565b82525050565b600060208201905061286f600083018461284b565b92915050565b60008060006060848603121561288e5761288d6125a0565b5b600061289c868287016127f6565b93505060206128ad868287016127f6565b92505060406128be86828701612741565b9150509250925092565b600080fd5b600080fd5b600080fd5b60008083601f8401126128ed576128ec6128c8565b5b8235905067ffffffffffffffff81111561290a576129096128cd565b5b602083019150836001820283011115612926576129256128d2565b5b9250929050565b60008060208385031215612944576129436125a0565b5b600083013567ffffffffffffffff811115612962576129616125a5565b5b61296e858286016128d7565b92509250509250929050565b6000602082840312156129905761298f6125a0565b5b600061299e848285016127f6565b91505092915050565b6129b08161262f565b81146129bb57600080fd5b50565b6000813590506129cd816129a7565b92915050565b600080604083850312156129ea576129e96125a0565b5b60006129f8858286016127f6565b9250506020612a09858286016129be565b9150509250929050565b600080fd5b7f4e487b7100000000000000000000000000000000000000000000000000000000600052604160045260246000fd5b612a50826126b4565b810181811067ffffffffffffffff82111715612a6f57612a6e612a18565b5b80604052505050565b6000612a82612596565b9050612a8e8282612a47565b919050565b600067ffffffffffffffff821115612aae57612aad612a18565b5b612ab7826126b4565b9050602081019050919050565b82818337600083830152505050565b6000612ae6612ae184612a93565b612a78565b905082815260208101848484011115612b0257612b01612a13565b5b612b0d848285612ac4565b509392505050565b600082601f830112612b2a57612b296128c8565b5b8135612b3a848260208601612ad3565b91505092915050565b60008060008060808587031215612b5d57612b5c6125a0565b5b6000612b6b878288016127f6565b9450506020612b7c878288016127f6565b9350506040612b8d87828801612741565b925050606085013567ffffffffffffffff811115612bae57612bad6125a5565b5b612bba87828801612b15565b91505092959194509250565b60008060408385031215612bdd57612bdc6125a0565b5b6000612beb858286016127f6565b9250506020612bfc858286016127f6565b9150509250929050565b7f4f776e61626c653a2063616c6c6572206973206e6f7420746865206f776e6572600082015250565b6000612c3c602083612670565b9150612c4782612c06565b602082019050919050565b60006020820190508181036000830152612c6b81612c2f565b9050919050565b7f4e487b7100000000000000000000000000000000000000000000000000000000600052602260045260246000fd5b60006002820490506001821680612cb957607f821691505b60208210811415612ccd57612ccc612c72565b5b50919050565b7f4552433732313a20617070726f76656420717565727920666f72206e6f6e657860008201527f697374656e7420746f6b656e0000000000000000000000000000000000000000602082015250565b6000612d2f602c83612670565b9150612d3a82612cd3565b604082019050919050565b60006020820190508181036000830152612d5e81612d22565b9050919050565b7f4552433732313a20617070726f76616c20746f2063757272656e74206f776e6560008201527f7200000000000000000000000000000000000000000000000000000000000000602082015250565b6000612dc1602183612670565b9150612dcc82612d65565b604082019050919050565b60006020820190508181036000830152612df081612db4565b9050919050565b7f4552433732313a20617070726f76652063616c6c6572206973206e6f74206f7760008201527f6e6572206e6f7220617070726f76656420666f7220616c6c0000000000000000602082015250565b6000612e53603883612670565b9150612e5e82612df7565b604082019050919050565b60006020820190508181036000830152612e8281612e46565b9050919050565b7f4552433732313a207472616e736665722063616c6c6572206973206e6f74206f60008201527f776e6572206e6f7220617070726f766564000000000000000000000000000000602082015250565b6000612ee5603183612670565b9150612ef082612e89565b604082019050919050565b60006020820190508181036000830152612f1481612ed8565b9050919050565b7f4552433732314275726e61626c653a2063616c6c6572206973206e6f74206f7760008201527f6e6572206e6f7220617070726f76656400000000000000000000000000000000602082015250565b6000612f77603083612670565b9150612f8282612f1b565b604082019050919050565b60006020820190508181036000830152612fa681612f6a565b9050919050565b7f596f7520617265206e6f7420746865206f776e6572206f66207468697320746f60008201527f6b656e4964000000000000000000000000000000000000000000000000000000602082015250565b6000613009602583612670565b915061301482612fad565b604082019050919050565b6000602082019050818103600083015261303881612ffc565b9050919050565b7f4552433732313a206f776e657220717565727920666f72206e6f6e657869737460008201527f656e7420746f6b656e0000000000000000000000000000000000000000000000602082015250565b600061309b602983612670565b91506130a68261303f565b604082019050919050565b600060208201905081810360008301526130ca8161308e565b9050919050565b7f4552433732313a2062616c616e636520717565727920666f7220746865207a6560008201527f726f206164647265737300000000000000000000000000000000000000000000602082015250565b600061312d602a83612670565b9150613138826130d1565b604082019050919050565b6000602082019050818103600083015261315c81613120565b9050919050565b7f50524553414c455f434c4f534544000000000000000000000000000000000000600082015250565b6000613199600e83612670565b91506131a482613163565b602082019050919050565b600060208201905081810360008301526131c88161318c565b9050919050565b7f4e487b7100000000000000000000000000000000000000000000000000000000600052601160045260246000fd5b600061320982612720565b915061321483612720565b9250827fffffffffffffffffffffffffffffffffffffffffffffffffffffffffffffffff03821115613249576132486131cf565b5b828201905092915050565b7f4558434545445f4d41585f414c4c4f5745440000000000000000000000000000600082015250565b600061328a601283612670565b915061329582613254565b602082019050919050565b600060208201905081810360008301526132b98161327d565b9050919050565b60006132cb82612720565b91506132d683612720565b9250817fffffffffffffffffffffffffffffffffffffffffffffffffffffffffffffffff048311821515161561330f5761330e6131cf565b5b828202905092915050565b7f494e53554646494349454e545f45544800000000000000000000000000000000600082015250565b6000613350601083612670565b915061335b8261331a565b602082019050919050565b6000602082019050818103600083015261337f81613343565b9050919050565b7f4552433732314d657461646174613a2055524920717565727920666f72206e6f60008201527f6e6578697374656e7420746f6b656e0000000000000000000000000000000000602082015250565b60006133e2602f83612670565b91506133ed82613386565b604082019050919050565b60006020820190508181036000830152613411816133d5565b9050919050565b600081905092915050565b600061342e82612665565b6134388185613418565b9350613448818560208601612681565b80840191505092915050565b60006134608285613423565b915061346c8284613423565b91508190509392505050565b7f53414c455f434c4f534544000000000000000000000000000000000000000000600082015250565b60006134ae600b83612670565b91506134b982613478565b602082019050919050565b600060208201905081810360008301526134dd816134a1565b9050919050565b7f544f4f5f4541524c590000000000000000000000000000000000000000000000600082015250565b600061351a600983612670565b9150613525826134e4565b602082019050919050565b600060208201905081810360008301526135498161350d565b9050919050565b7f4558434545445f4d41585f535550504c59000000000000000000000000000000600082015250565b6000613586601183612670565b915061359182613550565b602082019050919050565b600060208201905081810360008301526135b581613579565b9050919050565b7f4f776e61626c653a206e6577206f776e657220697320746865207a65726f206160008201527f6464726573730000000000000000000000000000000000000000000000000000602082015250565b6000613618602683612670565b9150613623826135bc565b604082019050919050565b600060208201905081810360008301526136478161360b565b9050919050565b7f4552433732313a206f70657261746f7220717565727920666f72206e6f6e657860008201527f697374656e7420746f6b656e0000000000000000000000000000000000000000602082015250565b60006136aa602c83612670565b91506136b58261364e565b604082019050919050565b600060208201905081810360008301526136d98161369d565b9050919050565b7f4552433732313a207472616e73666572206f6620746f6b656e2074686174206960008201527f73206e6f74206f776e0000000000000000000000000000000000000000000000602082015250565b600061373c602983612670565b9150613747826136e0565b604082019050919050565b6000602082019050818103600083015261376b8161372f565b9050919050565b7f4552433732313a207472616e7366657220746f20746865207a65726f2061646460008201527f7265737300000000000000000000000000000000000000000000000000000000602082015250565b60006137ce602483612670565b91506137d982613772565b604082019050919050565b600060208201905081810360008301526137fd816137c1565b9050919050565b600061380f82612720565b915061381a83612720565b92508282101561382d5761382c6131cf565b5b828203905092915050565b600061384382612720565b91507fffffffffffffffffffffffffffffffffffffffffffffffffffffffffffffffff821415613876576138756131cf565b5b600182019050919050565b7f4552433732313a20617070726f766520746f2063616c6c657200000000000000600082015250565b60006138b7601983612670565b91506138c282613881565b602082019050919050565b600060208201905081810360008301526138e6816138aa565b9050919050565b7f4552433732313a207472616e7366657220746f206e6f6e20455243373231526560008201527f63656976657220696d706c656d656e7465720000000000000000000000000000602082015250565b6000613949603283612670565b9150613954826138ed565b604082019050919050565b600060208201905081810360008301526139788161393c565b9050919050565b7f4e487b7100000000000000000000000000000000000000000000000000000000600052601260045260246000fd5b60006139b982612720565b91506139c483612720565b9250826139d4576139d361397f565b5b828204905092915050565b60006139ea82612720565b91506139f583612720565b925082613a0557613a0461397f565b5b828206905092915050565b7f4e487b7100000000000000000000000000000000000000000000000000000000600052603260045260246000fd5b7f4552433732313a206d696e7420746f20746865207a65726f2061646472657373600082015250565b6000613a75602083612670565b9150613a8082613a3f565b602082019050919050565b60006020820190508181036000830152613aa481613a68565b9050919050565b7f4552433732313a20746f6b656e20616c7265616479206d696e74656400000000600082015250565b6000613ae1601c83612670565b9150613aec82613aab565b602082019050919050565b60006020820190508181036000830152613b1081613ad4565b9050919050565b600081519050919050565b600082825260208201905092915050565b6000613b3e82613b17565b613b488185613b22565b9350613b58818560208601612681565b613b61816126b4565b840191505092915050565b6000608082019050613b8160008301876127b5565b613b8e60208301866127b5565b613b9b604083018561284b565b8181036060830152613bad8184613b33565b905095945050505050565b600081519050613bc7816125d6565b92915050565b600060208284031215613be357613be26125a0565b5b6000613bf184828501613bb8565b9150509291505056fe687474703a2f2f6c6f63616c686f73743a333030302f636f6c6c65637461626c65732fa2646970667358221220b78b800be9dfa66123a7284be3e2ec6a66e0c9276245541e7f91432cb7bd43c564736f6c634300080a0033",
  "immutableReferences": {},
  "source": "// SPDX-License-Identifier: MIT\n\npragma solidity ^0.8.10;\n\nimport \"@openzeppelin/contracts/access/Ownable.sol\";\nimport \"@openzeppelin/contracts/utils/Counters.sol\";\nimport \"@openzeppelin/contracts/token/ERC721/extensions/ERC721Burnable.sol\";\n\ncontract MiamiAfterDark is ERC721Burnable, Ownable {\n    using Counters for Counters.Counter;\n    Counters.Counter private _tokenIds;\n\n    bool public presaleLive;\n    bool public saleLive;\n\n    uint256 public MAX_MINTABLE_PER_USER = 5;\n    uint256 public PRICE = 0.08 ether;\n    uint256 public totalSupply = 10000; // 10k\n\n    string private _tokenBaseURI;\n\n    mapping(address => uint256) public presalerListPurchases;\n\n    constructor() ERC721(\"Miami After Dark\", \"MAD\") {}\n\n    function setBaseURI(string calldata URI) external onlyOwner {\n        _tokenBaseURI = URI;\n    }\n\n    function _baseURI() internal pure override returns (string memory) {\n        return \"http://localhost:3000/collectables/\";\n    }\n\n    function startPresale() external onlyOwner {\n        presaleLive = true;\n    }\n\n    function startSale() external onlyOwner {\n        saleLive = true;\n    }\n\n    function buy(uint256 tokenQuantity) external payable {\n        require(saleLive, \"SALE_CLOSED\");\n        require(!presaleLive, \"TOO_EARLY\");\n        require(tokenQuantity <= MAX_MINTABLE_PER_USER, \"EXCEED_MAX_ALLOWED\");\n        require(PRICE * tokenQuantity <= msg.value, \"INSUFFICIENT_ETH\");\n\n        require(\n            _tokenIds.current() + tokenQuantity <= totalSupply,\n            \"EXCEED_MAX_SUPPLY\"\n        );\n\n        _mintTokensForAddress(msg.sender, tokenQuantity);\n    }\n\n    function refundMe(uint256 tokenId) external {\n        require(\n            _isApprovedOrOwner(msg.sender, tokenId),\n            \"You are not the owner of this tokenId\"\n        );\n        _burn(tokenId);\n        payable(msg.sender).transfer(PRICE);\n    }\n\n    function presaleBuy(uint256 tokenQuantity) external payable {\n        require(!saleLive && presaleLive, \"PRESALE_CLOSED\");\n        require(\n            presalerListPurchases[msg.sender] + tokenQuantity <=\n                MAX_MINTABLE_PER_USER,\n            \"EXCEED_MAX_ALLOWED\"\n        );\n        require(PRICE * tokenQuantity <= msg.value, \"INSUFFICIENT_ETH\");\n\n        _mintTokensForAddress(msg.sender, tokenQuantity);\n    }\n\n    function _mintTokensForAddress(address to, uint256 tokenQuantity) private {\n        presalerListPurchases[to] += tokenQuantity;\n        for (uint256 i = 0; i < tokenQuantity; i++) {\n            uint256 newItemId = _tokenIds.current();\n            _tokenIds.increment();\n            _mint(to, newItemId);\n        }\n    }\n\n    function getMinted() public view returns (uint256) {\n        return _tokenIds.current();\n    }\n\n    // ** - ADMIN - ** //\n\n    function withdraw() external onlyOwner {\n        payable(owner()).transfer(address(this).balance);\n    }\n}\n",
  "sourcePath": "/home/jasongoodison/dev/solidity/wastemans/wastemans-sol/contracts/MiamiAfterDark.sol",
  "compiler": {
    "name": "solc",
    "version": "0.8.10+commit.fc410830.Emscripten.clang"
  },
  "schemaVersion": "3.4.3",
  "updatedAt": "2021-12-24T22:45:37.348Z",
  "networkType": "ethereum",
  "devdoc": {
    "kind": "dev",
    "methods": {
      "approve(address,uint256)": {
        "details": "See {IERC721-approve}."
      },
      "balanceOf(address)": {
        "details": "See {IERC721-balanceOf}."
      },
      "burn(uint256)": {
        "details": "Burns `tokenId`. See {ERC721-_burn}. Requirements: - The caller must own `tokenId` or be an approved operator."
      },
      "getApproved(uint256)": {
        "details": "See {IERC721-getApproved}."
      },
      "isApprovedForAll(address,address)": {
        "details": "See {IERC721-isApprovedForAll}."
      },
      "name()": {
        "details": "See {IERC721Metadata-name}."
      },
      "owner()": {
        "details": "Returns the address of the current owner."
      },
      "ownerOf(uint256)": {
        "details": "See {IERC721-ownerOf}."
      },
      "renounceOwnership()": {
        "details": "Leaves the contract without owner. It will not be possible to call `onlyOwner` functions anymore. Can only be called by the current owner. NOTE: Renouncing ownership will leave the contract without an owner, thereby removing any functionality that is only available to the owner."
      },
      "safeTransferFrom(address,address,uint256)": {
        "details": "See {IERC721-safeTransferFrom}."
      },
      "safeTransferFrom(address,address,uint256,bytes)": {
        "details": "See {IERC721-safeTransferFrom}."
      },
      "setApprovalForAll(address,bool)": {
        "details": "See {IERC721-setApprovalForAll}."
      },
      "supportsInterface(bytes4)": {
        "details": "See {IERC165-supportsInterface}."
      },
      "symbol()": {
        "details": "See {IERC721Metadata-symbol}."
      },
      "tokenURI(uint256)": {
        "details": "See {IERC721Metadata-tokenURI}."
      },
      "transferFrom(address,address,uint256)": {
        "details": "See {IERC721-transferFrom}."
      },
      "transferOwnership(address)": {
        "details": "Transfers ownership of the contract to a new account (`newOwner`). Can only be called by the current owner."
      }
    },
    "version": 1
  },
  "userdoc": {
    "kind": "user",
    "methods": {},
    "version": 1
  }
}