{
  "contractName": "MiamiAfterDark",
  "abi": [
    {
      "inputs": [],
      "stateMutability": "nonpayable",
      "type": "constructor"
    },
    {
      "anonymous": false,
      "inputs": [
        {
          "indexed": true,
          "internalType": "address",
          "name": "owner",
          "type": "address"
        },
        {
          "indexed": true,
          "internalType": "address",
          "name": "approved",
          "type": "address"
        },
        {
          "indexed": true,
          "internalType": "uint256",
          "name": "tokenId",
          "type": "uint256"
        }
      ],
      "name": "Approval",
      "type": "event"
    },
    {
      "anonymous": false,
      "inputs": [
        {
          "indexed": true,
          "internalType": "address",
          "name": "owner",
          "type": "address"
        },
        {
          "indexed": true,
          "internalType": "address",
          "name": "operator",
          "type": "address"
        },
        {
          "indexed": false,
          "internalType": "bool",
          "name": "approved",
          "type": "bool"
        }
      ],
      "name": "ApprovalForAll",
      "type": "event"
    },
    {
      "anonymous": false,
      "inputs": [
        {
          "indexed": true,
          "internalType": "address",
          "name": "previousOwner",
          "type": "address"
        },
        {
          "indexed": true,
          "internalType": "address",
          "name": "newOwner",
          "type": "address"
        }
      ],
      "name": "OwnershipTransferred",
      "type": "event"
    },
    {
      "anonymous": false,
      "inputs": [
        {
          "indexed": true,
          "internalType": "address",
          "name": "from",
          "type": "address"
        },
        {
          "indexed": true,
          "internalType": "address",
          "name": "to",
          "type": "address"
        },
        {
          "indexed": true,
          "internalType": "uint256",
          "name": "tokenId",
          "type": "uint256"
        }
      ],
      "name": "Transfer",
      "type": "event"
    },
    {
      "inputs": [],
      "name": "MAX_MINTABLE_PER_USER",
      "outputs": [
        {
          "internalType": "uint256",
          "name": "",
          "type": "uint256"
        }
      ],
      "stateMutability": "view",
      "type": "function",
      "constant": true
    },
    {
      "inputs": [],
      "name": "PRICE",
      "outputs": [
        {
          "internalType": "uint256",
          "name": "",
          "type": "uint256"
        }
      ],
      "stateMutability": "view",
      "type": "function",
      "constant": true
    },
    {
      "inputs": [],
      "name": "PROVENANCE",
      "outputs": [
        {
          "internalType": "string",
          "name": "",
          "type": "string"
        }
      ],
      "stateMutability": "view",
      "type": "function",
      "constant": true
    },
    {
      "inputs": [
        {
          "internalType": "address",
          "name": "to",
          "type": "address"
        },
        {
          "internalType": "uint256",
          "name": "tokenId",
          "type": "uint256"
        }
      ],
      "name": "approve",
      "outputs": [],
      "stateMutability": "nonpayable",
      "type": "function"
    },
    {
      "inputs": [
        {
          "internalType": "address",
          "name": "owner",
          "type": "address"
        }
      ],
      "name": "balanceOf",
      "outputs": [
        {
          "internalType": "uint256",
          "name": "",
          "type": "uint256"
        }
      ],
      "stateMutability": "view",
      "type": "function",
      "constant": true
    },
    {
      "inputs": [
        {
          "internalType": "uint256",
          "name": "tokenId",
          "type": "uint256"
        }
      ],
      "name": "burn",
      "outputs": [],
      "stateMutability": "nonpayable",
      "type": "function"
    },
    {
      "inputs": [
        {
          "internalType": "uint256",
          "name": "tokenId",
          "type": "uint256"
        }
      ],
      "name": "getApproved",
      "outputs": [
        {
          "internalType": "address",
          "name": "",
          "type": "address"
        }
      ],
      "stateMutability": "view",
      "type": "function",
      "constant": true
    },
    {
      "inputs": [
        {
          "internalType": "address",
          "name": "owner",
          "type": "address"
        },
        {
          "internalType": "address",
          "name": "operator",
          "type": "address"
        }
      ],
      "name": "isApprovedForAll",
      "outputs": [
        {
          "internalType": "bool",
          "name": "",
          "type": "bool"
        }
      ],
      "stateMutability": "view",
      "type": "function",
      "constant": true
    },
    {
      "inputs": [],
      "name": "maxSupply",
      "outputs": [
        {
          "internalType": "uint256",
          "name": "",
          "type": "uint256"
        }
      ],
      "stateMutability": "view",
      "type": "function",
      "constant": true
    },
    {
      "inputs": [],
      "name": "name",
      "outputs": [
        {
          "internalType": "string",
          "name": "",
          "type": "string"
        }
      ],
      "stateMutability": "view",
      "type": "function",
      "constant": true
    },
    {
      "inputs": [],
      "name": "owner",
      "outputs": [
        {
          "internalType": "address",
          "name": "",
          "type": "address"
        }
      ],
      "stateMutability": "view",
      "type": "function",
      "constant": true
    },
    {
      "inputs": [
        {
          "internalType": "uint256",
          "name": "tokenId",
          "type": "uint256"
        }
      ],
      "name": "ownerOf",
      "outputs": [
        {
          "internalType": "address",
          "name": "",
          "type": "address"
        }
      ],
      "stateMutability": "view",
      "type": "function",
      "constant": true
    },
    {
      "inputs": [],
      "name": "presaleLive",
      "outputs": [
        {
          "internalType": "bool",
          "name": "",
          "type": "bool"
        }
      ],
      "stateMutability": "view",
      "type": "function",
      "constant": true
    },
    {
      "inputs": [
        {
          "internalType": "address",
          "name": "",
          "type": "address"
        }
      ],
      "name": "presalerListPurchases",
      "outputs": [
        {
          "internalType": "uint256",
          "name": "",
          "type": "uint256"
        }
      ],
      "stateMutability": "view",
      "type": "function",
      "constant": true
    },
    {
      "inputs": [],
      "name": "renounceOwnership",
      "outputs": [],
      "stateMutability": "nonpayable",
      "type": "function"
    },
    {
      "inputs": [
        {
          "internalType": "address",
          "name": "from",
          "type": "address"
        },
        {
          "internalType": "address",
          "name": "to",
          "type": "address"
        },
        {
          "internalType": "uint256",
          "name": "tokenId",
          "type": "uint256"
        }
      ],
      "name": "safeTransferFrom",
      "outputs": [],
      "stateMutability": "nonpayable",
      "type": "function"
    },
    {
      "inputs": [
        {
          "internalType": "address",
          "name": "from",
          "type": "address"
        },
        {
          "internalType": "address",
          "name": "to",
          "type": "address"
        },
        {
          "internalType": "uint256",
          "name": "tokenId",
          "type": "uint256"
        },
        {
          "internalType": "bytes",
          "name": "_data",
          "type": "bytes"
        }
      ],
      "name": "safeTransferFrom",
      "outputs": [],
      "stateMutability": "nonpayable",
      "type": "function"
    },
    {
      "inputs": [],
      "name": "saleLive",
      "outputs": [
        {
          "internalType": "bool",
          "name": "",
          "type": "bool"
        }
      ],
      "stateMutability": "view",
      "type": "function",
      "constant": true
    },
    {
      "inputs": [
        {
          "internalType": "address",
          "name": "operator",
          "type": "address"
        },
        {
          "internalType": "bool",
          "name": "approved",
          "type": "bool"
        }
      ],
      "name": "setApprovalForAll",
      "outputs": [],
      "stateMutability": "nonpayable",
      "type": "function"
    },
    {
      "inputs": [],
      "name": "symbol",
      "outputs": [
        {
          "internalType": "string",
          "name": "",
          "type": "string"
        }
      ],
      "stateMutability": "view",
      "type": "function",
      "constant": true
    },
    {
      "inputs": [
        {
          "internalType": "uint256",
          "name": "index",
          "type": "uint256"
        }
      ],
      "name": "tokenByIndex",
      "outputs": [
        {
          "internalType": "uint256",
          "name": "",
          "type": "uint256"
        }
      ],
      "stateMutability": "view",
      "type": "function",
      "constant": true
    },
    {
      "inputs": [
        {
          "internalType": "address",
          "name": "owner",
          "type": "address"
        },
        {
          "internalType": "uint256",
          "name": "index",
          "type": "uint256"
        }
      ],
      "name": "tokenOfOwnerByIndex",
      "outputs": [
        {
          "internalType": "uint256",
          "name": "",
          "type": "uint256"
        }
      ],
      "stateMutability": "view",
      "type": "function",
      "constant": true
    },
    {
      "inputs": [
        {
          "internalType": "uint256",
          "name": "tokenId",
          "type": "uint256"
        }
      ],
      "name": "tokenURI",
      "outputs": [
        {
          "internalType": "string",
          "name": "",
          "type": "string"
        }
      ],
      "stateMutability": "view",
      "type": "function",
      "constant": true
    },
    {
      "inputs": [],
      "name": "totalSupply",
      "outputs": [
        {
          "internalType": "uint256",
          "name": "",
          "type": "uint256"
        }
      ],
      "stateMutability": "view",
      "type": "function",
      "constant": true
    },
    {
      "inputs": [
        {
          "internalType": "address",
          "name": "from",
          "type": "address"
        },
        {
          "internalType": "address",
          "name": "to",
          "type": "address"
        },
        {
          "internalType": "uint256",
          "name": "tokenId",
          "type": "uint256"
        }
      ],
      "name": "transferFrom",
      "outputs": [],
      "stateMutability": "nonpayable",
      "type": "function"
    },
    {
      "inputs": [
        {
          "internalType": "address",
          "name": "newOwner",
          "type": "address"
        }
      ],
      "name": "transferOwnership",
      "outputs": [],
      "stateMutability": "nonpayable",
      "type": "function"
    },
    {
      "inputs": [
        {
          "internalType": "string",
          "name": "URI",
          "type": "string"
        }
      ],
      "name": "setBaseURI",
      "outputs": [],
      "stateMutability": "nonpayable",
      "type": "function"
    },
    {
      "inputs": [
        {
          "internalType": "string",
          "name": "provenanceHash",
          "type": "string"
        }
      ],
      "name": "setProvenanceHash",
      "outputs": [],
      "stateMutability": "nonpayable",
      "type": "function"
    },
    {
      "inputs": [],
      "name": "startPresale",
      "outputs": [],
      "stateMutability": "nonpayable",
      "type": "function"
    },
    {
      "inputs": [],
      "name": "startSale",
      "outputs": [],
      "stateMutability": "nonpayable",
      "type": "function"
    },
    {
      "inputs": [
        {
          "internalType": "uint256",
          "name": "tokenQuantity",
          "type": "uint256"
        }
      ],
      "name": "buy",
      "outputs": [],
      "stateMutability": "payable",
      "type": "function",
      "payable": true
    },
    {
      "inputs": [
        {
          "internalType": "uint256",
          "name": "_number",
          "type": "uint256"
        },
        {
          "internalType": "address",
          "name": "_receiver",
          "type": "address"
        }
      ],
      "name": "claimReserved",
      "outputs": [],
      "stateMutability": "nonpayable",
      "type": "function"
    },
    {
      "inputs": [
        {
          "internalType": "uint256",
          "name": "tokenId",
          "type": "uint256"
        }
      ],
      "name": "refundMe",
      "outputs": [],
      "stateMutability": "nonpayable",
      "type": "function"
    },
    {
      "inputs": [
        {
          "internalType": "uint256",
          "name": "tokenQuantity",
          "type": "uint256"
        }
      ],
      "name": "presaleBuy",
      "outputs": [],
      "stateMutability": "payable",
      "type": "function",
      "payable": true
    },
    {
      "inputs": [],
      "name": "getMinted",
      "outputs": [
        {
          "internalType": "uint256",
          "name": "",
          "type": "uint256"
        }
      ],
      "stateMutability": "view",
      "type": "function",
      "constant": true
    },
    {
      "inputs": [
        {
          "internalType": "bytes4",
          "name": "interfaceId",
          "type": "bytes4"
        }
      ],
      "name": "supportsInterface",
      "outputs": [
        {
          "internalType": "bool",
          "name": "",
          "type": "bool"
        }
      ],
      "stateMutability": "view",
      "type": "function",
      "constant": true
    },
    {
      "inputs": [],
      "name": "withdraw",
      "outputs": [],
      "stateMutability": "nonpayable",
      "type": "function"
    }
  ],
  "bytecode": "0x60806040526005600d5567011c37937e080000600e5560c8600f55604051806020016040528060008152506010908051906020019062000041929190620001e4565b503480156200004f57600080fd5b506040518060400160405280601081526020017f4d69616d69204166746572204461726b000000000000000000000000000000008152506040518060400160405280600381526020017f4d414400000000000000000000000000000000000000000000000000000000008152508160009080519060200190620000d4929190620001e4565b508060019080519060200190620000ed929190620001e4565b50505062000110620001046200011660201b60201c565b6200011e60201b60201c565b620002f9565b600033905090565b6000600660009054906101000a900473ffffffffffffffffffffffffffffffffffffffff16905081600660006101000a81548173ffffffffffffffffffffffffffffffffffffffff021916908373ffffffffffffffffffffffffffffffffffffffff1602179055508173ffffffffffffffffffffffffffffffffffffffff168173ffffffffffffffffffffffffffffffffffffffff167f8be0079c531659141344cd1fd0a4f28419497f9722a3daafe3b4186f6b6457e060405160405180910390a35050565b828054620001f290620002c3565b90600052602060002090601f01602090048101928262000216576000855562000262565b82601f106200023157805160ff191683800117855562000262565b8280016001018555821562000262579182015b828111156200026157825182559160200191906001019062000244565b5b50905062000271919062000275565b5090565b5b808211156200029057600081600090555060010162000276565b5090565b7f4e487b7100000000000000000000000000000000000000000000000000000000600052602260045260246000fd5b60006002820490506001821680620002dc57607f821691505b60208210811415620002f357620002f262000294565b5b50919050565b6148fc80620003096000396000f3fe60806040526004361061021a5760003560e01c806370a0823111610123578063ac72200d116100ab578063d5abeb011161006f578063d5abeb011461079c578063d96a094a146107c7578063e081b781146107e3578063e985e9c51461080e578063f2fde38b1461084b5761021a565b8063ac72200d146106cb578063b0e1d7f3146106f6578063b66a0e5d1461071f578063b88d4fde14610736578063c87b56dd1461075f5761021a565b80638d859f3e116100f25780638d859f3e146105e45780638da5cb5b1461060f57806395d89b411461063a5780639bf8031614610665578063a22cb465146106a25761021a565b806370a0823114610549578063715018a614610586578063815f7bbd1461059d57806383a9e049146105b95761021a565b80633ccfd60b116101a657806355f804b31161017557806355f804b314610464578063600ab28b1461048d578063629921f5146104b65780636352211e146104e15780636373a6b11461051e5761021a565b80633ccfd60b146103be57806342842e0e146103d557806342966c68146103fe5780634f6ccce7146104275761021a565b8063095ea7b3116101ed578063095ea7b3146102db578063109695231461030457806318160ddd1461032d57806323b872dd146103585780632f745c59146103815761021a565b806301ffc9a71461021f57806304c98b2b1461025c57806306fdde0314610273578063081812fc1461029e575b600080fd5b34801561022b57600080fd5b506102466004803603810190610241919061306c565b610874565b60405161025391906130b4565b60405180910390f35b34801561026857600080fd5b50610271610886565b005b34801561027f57600080fd5b5061028861091f565b6040516102959190613168565b60405180910390f35b3480156102aa57600080fd5b506102c560048036038101906102c091906131c0565b6109b1565b6040516102d2919061322e565b60405180910390f35b3480156102e757600080fd5b5061030260048036038101906102fd9190613275565b610a36565b005b34801561031057600080fd5b5061032b600480360381019061032691906133ea565b610b4e565b005b34801561033957600080fd5b50610342610be4565b60405161034f9190613442565b60405180910390f35b34801561036457600080fd5b5061037f600480360381019061037a919061345d565b610bf1565b005b34801561038d57600080fd5b506103a860048036038101906103a39190613275565b610c51565b6040516103b59190613442565b60405180910390f35b3480156103ca57600080fd5b506103d3610cf6565b005b3480156103e157600080fd5b506103fc60048036038101906103f7919061345d565b610dc2565b005b34801561040a57600080fd5b50610425600480360381019061042091906131c0565b610de2565b005b34801561043357600080fd5b5061044e600480360381019061044991906131c0565b610e3e565b60405161045b9190613442565b60405180910390f35b34801561047057600080fd5b5061048b600480360381019061048691906133ea565b610eaf565b005b34801561049957600080fd5b506104b460048036038101906104af91906131c0565b610f45565b005b3480156104c257600080fd5b506104cb610fe3565b6040516104d89190613442565b60405180910390f35b3480156104ed57600080fd5b50610508600480360381019061050391906131c0565b610fe9565b604051610515919061322e565b60405180910390f35b34801561052a57600080fd5b5061053361109b565b6040516105409190613168565b60405180910390f35b34801561055557600080fd5b50610570600480360381019061056b91906134b0565b611129565b60405161057d9190613442565b60405180910390f35b34801561059257600080fd5b5061059b6111e1565b005b6105b760048036038101906105b291906131c0565b611269565b005b3480156105c557600080fd5b506105ce6113bd565b6040516105db91906130b4565b60405180910390f35b3480156105f057600080fd5b506105f96113d0565b6040516106069190613442565b60405180910390f35b34801561061b57600080fd5b506106246113d6565b604051610631919061322e565b60405180910390f35b34801561064657600080fd5b5061064f611400565b60405161065c9190613168565b60405180910390f35b34801561067157600080fd5b5061068c600480360381019061068791906134b0565b611492565b6040516106999190613442565b60405180910390f35b3480156106ae57600080fd5b506106c960048036038101906106c49190613509565b6114aa565b005b3480156106d757600080fd5b506106e06114c0565b6040516106ed9190613442565b60405180910390f35b34801561070257600080fd5b5061071d60048036038101906107189190613549565b6114d1565b005b34801561072b57600080fd5b506107346115eb565b005b34801561074257600080fd5b5061075d6004803603810190610758919061362a565b611684565b005b34801561076b57600080fd5b50610786600480360381019061078191906131c0565b6116e6565b6040516107939190613168565b60405180910390f35b3480156107a857600080fd5b506107b161178d565b6040516107be9190613442565b60405180910390f35b6107e160048036038101906107dc91906131c0565b611793565b005b3480156107ef57600080fd5b506107f861192d565b60405161080591906130b4565b60405180910390f35b34801561081a57600080fd5b50610835600480360381019061083091906136ad565b611940565b60405161084291906130b4565b60405180910390f35b34801561085757600080fd5b50610872600480360381019061086d91906134b0565b6119d4565b005b600061087f82611acc565b9050919050565b61088e611b46565b73ffffffffffffffffffffffffffffffffffffffff166108ac6113d6565b73ffffffffffffffffffffffffffffffffffffffff1614610902576040517f08c379a00000000000000000000000000000000000000000000000000000000081526004016108f990613739565b60405180910390fd5b6001600c60006101000a81548160ff021916908315150217905550565b60606000805461092e90613788565b80601f016020809104026020016040519081016040528092919081815260200182805461095a90613788565b80156109a75780601f1061097c576101008083540402835291602001916109a7565b820191906000526020600020905b81548152906001019060200180831161098a57829003601f168201915b5050505050905090565b60006109bc82611b4e565b6109fb576040517f08c379a00000000000000000000000000000000000000000000000000000000081526004016109f29061382c565b60405180910390fd5b6004600083815260200190815260200160002060009054906101000a900473ffffffffffffffffffffffffffffffffffffffff169050919050565b6000610a4182610fe9565b90508073ffffffffffffffffffffffffffffffffffffffff168373ffffffffffffffffffffffffffffffffffffffff161415610ab2576040517f08c379a0000000000000000000000000000000000000000000000000000000008152600401610aa9906138be565b60405180910390fd5b8073ffffffffffffffffffffffffffffffffffffffff16610ad1611b46565b73ffffffffffffffffffffffffffffffffffffffff161480610b005750610aff81610afa611b46565b611940565b5b610b3f576040517f08c379a0000000000000000000000000000000000000000000000000000000008152600401610b3690613950565b60405180910390fd5b610b498383611bba565b505050565b610b56611b46565b73ffffffffffffffffffffffffffffffffffffffff16610b746113d6565b73ffffffffffffffffffffffffffffffffffffffff1614610bca576040517f08c379a0000000000000000000000000000000000000000000000000000000008152600401610bc190613739565b60405180910390fd5b8060109080519060200190610be0929190612f5d565b5050565b6000600980549050905090565b610c02610bfc611b46565b82611c73565b610c41576040517f08c379a0000000000000000000000000000000000000000000000000000000008152600401610c38906139e2565b60405180910390fd5b610c4c838383611d51565b505050565b6000610c5c83611129565b8210610c9d576040517f08c379a0000000000000000000000000000000000000000000000000000000008152600401610c9490613a74565b60405180910390fd5b600760008473ffffffffffffffffffffffffffffffffffffffff1673ffffffffffffffffffffffffffffffffffffffff168152602001908152602001600020600083815260200190815260200160002054905092915050565b610cfe611b46565b73ffffffffffffffffffffffffffffffffffffffff16610d1c6113d6565b73ffffffffffffffffffffffffffffffffffffffff1614610d72576040517f08c379a0000000000000000000000000000000000000000000000000000000008152600401610d6990613739565b60405180910390fd5b610d7a6113d6565b73ffffffffffffffffffffffffffffffffffffffff166108fc479081150290604051600060405180830381858888f19350505050158015610dbf573d6000803e3d6000fd5b50565b610ddd83838360405180602001604052806000815250611684565b505050565b610df3610ded611b46565b82611c73565b610e32576040517f08c379a0000000000000000000000000000000000000000000000000000000008152600401610e2990613b06565b60405180910390fd5b610e3b81611fad565b50565b6000610e48610be4565b8210610e89576040517f08c379a0000000000000000000000000000000000000000000000000000000008152600401610e8090613b98565b60405180910390fd5b60098281548110610e9d57610e9c613bb8565b5b90600052602060002001549050919050565b610eb7611b46565b73ffffffffffffffffffffffffffffffffffffffff16610ed56113d6565b73ffffffffffffffffffffffffffffffffffffffff1614610f2b576040517f08c379a0000000000000000000000000000000000000000000000000000000008152600401610f2290613739565b60405180910390fd5b8060119080519060200190610f41929190612f5d565b5050565b610f4f3382611c73565b610f8e576040517f08c379a0000000000000000000000000000000000000000000000000000000008152600401610f8590613c59565b60405180910390fd5b610f9781611fad565b3373ffffffffffffffffffffffffffffffffffffffff166108fc600e549081150290604051600060405180830381858888f19350505050158015610fdf573d6000803e3d6000fd5b5050565b600d5481565b6000806002600084815260200190815260200160002060009054906101000a900473ffffffffffffffffffffffffffffffffffffffff169050600073ffffffffffffffffffffffffffffffffffffffff168173ffffffffffffffffffffffffffffffffffffffff161415611092576040517f08c379a000000000000000000000000000000000000000000000000000000000815260040161108990613ceb565b60405180910390fd5b80915050919050565b601080546110a890613788565b80601f01602080910402602001604051908101604052809291908181526020018280546110d490613788565b80156111215780601f106110f657610100808354040283529160200191611121565b820191906000526020600020905b81548152906001019060200180831161110457829003601f168201915b505050505081565b60008073ffffffffffffffffffffffffffffffffffffffff168273ffffffffffffffffffffffffffffffffffffffff16141561119a576040517f08c379a000000000000000000000000000000000000000000000000000000000815260040161119190613d7d565b60405180910390fd5b600360008373ffffffffffffffffffffffffffffffffffffffff1673ffffffffffffffffffffffffffffffffffffffff168152602001908152602001600020549050919050565b6111e9611b46565b73ffffffffffffffffffffffffffffffffffffffff166112076113d6565b73ffffffffffffffffffffffffffffffffffffffff161461125d576040517f08c379a000000000000000000000000000000000000000000000000000000000815260040161125490613739565b60405180910390fd5b61126760006120be565b565b600c60019054906101000a900460ff161580156112925750600c60009054906101000a900460ff165b6112d1576040517f08c379a00000000000000000000000000000000000000000000000000000000081526004016112c890613de9565b60405180910390fd5b600d5481601260003373ffffffffffffffffffffffffffffffffffffffff1673ffffffffffffffffffffffffffffffffffffffff1681526020019081526020016000205461131f9190613e38565b1115611360576040517f08c379a000000000000000000000000000000000000000000000000000000000815260040161135790613eda565b60405180910390fd5b3481600e5461136f9190613efa565b11156113b0576040517f08c379a00000000000000000000000000000000000000000000000000000000081526004016113a790613fa0565b60405180910390fd5b6113ba3382612184565b50565b600c60009054906101000a900460ff1681565b600e5481565b6000600660009054906101000a900473ffffffffffffffffffffffffffffffffffffffff16905090565b60606001805461140f90613788565b80601f016020809104026020016040519081016040528092919081815260200182805461143b90613788565b80156114885780601f1061145d57610100808354040283529160200191611488565b820191906000526020600020905b81548152906001019060200180831161146b57829003601f168201915b5050505050905090565b60126020528060005260406000206000915090505481565b6114bc6114b5611b46565b8383612220565b5050565b60006114cc600b61238d565b905090565b6114d9611b46565b73ffffffffffffffffffffffffffffffffffffffff166114f76113d6565b73ffffffffffffffffffffffffffffffffffffffff161461154d576040517f08c379a000000000000000000000000000000000000000000000000000000000815260040161154490613739565b60405180910390fd5b600f54821115611592576040517f08c379a000000000000000000000000000000000000000000000000000000000815260040161158990614032565b60405180910390fd5b600061159c610be4565b905060005b838110156115d1576115be8382846115b99190613e38565b61239b565b80806115c990614052565b9150506115a1565b5082600f546115e0919061409b565b600f81905550505050565b6115f3611b46565b73ffffffffffffffffffffffffffffffffffffffff166116116113d6565b73ffffffffffffffffffffffffffffffffffffffff1614611667576040517f08c379a000000000000000000000000000000000000000000000000000000000815260040161165e90613739565b60405180910390fd5b6001600c60016101000a81548160ff021916908315150217905550565b61169561168f611b46565b83611c73565b6116d4576040517f08c379a00000000000000000000000000000000000000000000000000000000081526004016116cb906139e2565b60405180910390fd5b6116e0848484846123b9565b50505050565b60606116f182611b4e565b611730576040517f08c379a000000000000000000000000000000000000000000000000000000000815260040161172790614141565b60405180910390fd5b600061173a612415565b9050600081511161175a5760405180602001604052806000815250611785565b80611764846124a7565b60405160200161177592919061419d565b6040516020818303038152906040525b915050919050565b61271081565b600c60019054906101000a900460ff166117e2576040517f08c379a00000000000000000000000000000000000000000000000000000000081526004016117d99061420d565b60405180910390fd5b600c60009054906101000a900460ff1615611832576040517f08c379a000000000000000000000000000000000000000000000000000000000815260040161182990614279565b60405180910390fd5b600d54811115611877576040517f08c379a000000000000000000000000000000000000000000000000000000000815260040161186e90613eda565b60405180910390fd5b3481600e546118869190613efa565b11156118c7576040517f08c379a00000000000000000000000000000000000000000000000000000000081526004016118be90613fa0565b60405180910390fd5b612710816118d5600b61238d565b6118df9190613e38565b1115611920576040517f08c379a0000000000000000000000000000000000000000000000000000000008152600401611917906142e5565b60405180910390fd5b61192a3382612184565b50565b600c60019054906101000a900460ff1681565b6000600560008473ffffffffffffffffffffffffffffffffffffffff1673ffffffffffffffffffffffffffffffffffffffff16815260200190815260200160002060008373ffffffffffffffffffffffffffffffffffffffff1673ffffffffffffffffffffffffffffffffffffffff16815260200190815260200160002060009054906101000a900460ff16905092915050565b6119dc611b46565b73ffffffffffffffffffffffffffffffffffffffff166119fa6113d6565b73ffffffffffffffffffffffffffffffffffffffff1614611a50576040517f08c379a0000000000000000000000000000000000000000000000000000000008152600401611a4790613739565b60405180910390fd5b600073ffffffffffffffffffffffffffffffffffffffff168173ffffffffffffffffffffffffffffffffffffffff161415611ac0576040517f08c379a0000000000000000000000000000000000000000000000000000000008152600401611ab790614377565b60405180910390fd5b611ac9816120be565b50565b60007f780e9d63000000000000000000000000000000000000000000000000000000007bffffffffffffffffffffffffffffffffffffffffffffffffffffffff1916827bffffffffffffffffffffffffffffffffffffffffffffffffffffffff19161480611b3f5750611b3e82612608565b5b9050919050565b600033905090565b60008073ffffffffffffffffffffffffffffffffffffffff166002600084815260200190815260200160002060009054906101000a900473ffffffffffffffffffffffffffffffffffffffff1673ffffffffffffffffffffffffffffffffffffffff1614159050919050565b816004600083815260200190815260200160002060006101000a81548173ffffffffffffffffffffffffffffffffffffffff021916908373ffffffffffffffffffffffffffffffffffffffff160217905550808273ffffffffffffffffffffffffffffffffffffffff16611c2d83610fe9565b73ffffffffffffffffffffffffffffffffffffffff167f8c5be1e5ebec7d5bd14f71427d1e84f3dd0314c0f7b2291e5b200ac8c7c3b92560405160405180910390a45050565b6000611c7e82611b4e565b611cbd576040517f08c379a0000000000000000000000000000000000000000000000000000000008152600401611cb490614409565b60405180910390fd5b6000611cc883610fe9565b90508073ffffffffffffffffffffffffffffffffffffffff168473ffffffffffffffffffffffffffffffffffffffff161480611d3757508373ffffffffffffffffffffffffffffffffffffffff16611d1f846109b1565b73ffffffffffffffffffffffffffffffffffffffff16145b80611d485750611d478185611940565b5b91505092915050565b8273ffffffffffffffffffffffffffffffffffffffff16611d7182610fe9565b73ffffffffffffffffffffffffffffffffffffffff1614611dc7576040517f08c379a0000000000000000000000000000000000000000000000000000000008152600401611dbe9061449b565b60405180910390fd5b600073ffffffffffffffffffffffffffffffffffffffff168273ffffffffffffffffffffffffffffffffffffffff161415611e37576040517f08c379a0000000000000000000000000000000000000000000000000000000008152600401611e2e9061452d565b60405180910390fd5b611e428383836126ea565b611e4d600082611bba565b6001600360008573ffffffffffffffffffffffffffffffffffffffff1673ffffffffffffffffffffffffffffffffffffffff1681526020019081526020016000206000828254611e9d919061409b565b925050819055506001600360008473ffffffffffffffffffffffffffffffffffffffff1673ffffffffffffffffffffffffffffffffffffffff1681526020019081526020016000206000828254611ef49190613e38565b92505081905550816002600083815260200190815260200160002060006101000a81548173ffffffffffffffffffffffffffffffffffffffff021916908373ffffffffffffffffffffffffffffffffffffffff160217905550808273ffffffffffffffffffffffffffffffffffffffff168473ffffffffffffffffffffffffffffffffffffffff167fddf252ad1be2c89b69c2b068fc378daa952ba7f163c4a11628f55a4df523b3ef60405160405180910390a4505050565b6000611fb882610fe9565b9050611fc6816000846126ea565b611fd1600083611bba565b6001600360008373ffffffffffffffffffffffffffffffffffffffff1673ffffffffffffffffffffffffffffffffffffffff1681526020019081526020016000206000828254612021919061409b565b925050819055506002600083815260200190815260200160002060006101000a81549073ffffffffffffffffffffffffffffffffffffffff021916905581600073ffffffffffffffffffffffffffffffffffffffff168273ffffffffffffffffffffffffffffffffffffffff167fddf252ad1be2c89b69c2b068fc378daa952ba7f163c4a11628f55a4df523b3ef60405160405180910390a45050565b6000600660009054906101000a900473ffffffffffffffffffffffffffffffffffffffff16905081600660006101000a81548173ffffffffffffffffffffffffffffffffffffffff021916908373ffffffffffffffffffffffffffffffffffffffff1602179055508173ffffffffffffffffffffffffffffffffffffffff168173ffffffffffffffffffffffffffffffffffffffff167f8be0079c531659141344cd1fd0a4f28419497f9722a3daafe3b4186f6b6457e060405160405180910390a35050565b80601260008473ffffffffffffffffffffffffffffffffffffffff1673ffffffffffffffffffffffffffffffffffffffff16815260200190815260200160002060008282546121d39190613e38565b9250508190555060005b8181101561221b5760006121f1600b61238d565b90506121fd600b6126fa565b6122078482612710565b50808061221390614052565b9150506121dd565b505050565b8173ffffffffffffffffffffffffffffffffffffffff168373ffffffffffffffffffffffffffffffffffffffff16141561228f576040517f08c379a000000000000000000000000000000000000000000000000000000000815260040161228690614599565b60405180910390fd5b80600560008573ffffffffffffffffffffffffffffffffffffffff1673ffffffffffffffffffffffffffffffffffffffff16815260200190815260200160002060008473ffffffffffffffffffffffffffffffffffffffff1673ffffffffffffffffffffffffffffffffffffffff16815260200190815260200160002060006101000a81548160ff0219169083151502179055508173ffffffffffffffffffffffffffffffffffffffff168373ffffffffffffffffffffffffffffffffffffffff167f17307eab39ab6107e8899845ad3d59bd9653f200f220920489ca2b5937696c318360405161238091906130b4565b60405180910390a3505050565b600081600001549050919050565b6123b58282604051806020016040528060008152506128de565b5050565b6123c4848484611d51565b6123d084848484612939565b61240f576040517f08c379a00000000000000000000000000000000000000000000000000000000081526004016124069061462b565b60405180910390fd5b50505050565b60606011805461242490613788565b80601f016020809104026020016040519081016040528092919081815260200182805461245090613788565b801561249d5780601f106124725761010080835404028352916020019161249d565b820191906000526020600020905b81548152906001019060200180831161248057829003601f168201915b5050505050905090565b606060008214156124ef576040518060400160405280600181526020017f30000000000000000000000000000000000000000000000000000000000000008152509050612603565b600082905060005b6000821461252157808061250a90614052565b915050600a8261251a919061467a565b91506124f7565b60008167ffffffffffffffff81111561253d5761253c6132bf565b5b6040519080825280601f01601f19166020018201604052801561256f5781602001600182028036833780820191505090505b5090505b600085146125fc57600182612588919061409b565b9150600a8561259791906146ab565b60306125a39190613e38565b60f81b8183815181106125b9576125b8613bb8565b5b60200101907effffffffffffffffffffffffffffffffffffffffffffffffffffffffffffff1916908160001a905350600a856125f5919061467a565b9450612573565b8093505050505b919050565b60007f80ac58cd000000000000000000000000000000000000000000000000000000007bffffffffffffffffffffffffffffffffffffffffffffffffffffffff1916827bffffffffffffffffffffffffffffffffffffffffffffffffffffffff191614806126d357507f5b5e139f000000000000000000000000000000000000000000000000000000007bffffffffffffffffffffffffffffffffffffffffffffffffffffffff1916827bffffffffffffffffffffffffffffffffffffffffffffffffffffffff1916145b806126e357506126e282612ac1565b5b9050919050565b6126f5838383612b2b565b505050565b6001816000016000828254019250508190555050565b600073ffffffffffffffffffffffffffffffffffffffff168273ffffffffffffffffffffffffffffffffffffffff161415612780576040517f08c379a000000000000000000000000000000000000000000000000000000000815260040161277790614728565b60405180910390fd5b61278981611b4e565b156127c9576040517f08c379a00000000000000000000000000000000000000000000000000000000081526004016127c090614794565b60405180910390fd5b6127d5600083836126ea565b6001600360008473ffffffffffffffffffffffffffffffffffffffff1673ffffffffffffffffffffffffffffffffffffffff16815260200190815260200160002060008282546128259190613e38565b92505081905550816002600083815260200190815260200160002060006101000a81548173ffffffffffffffffffffffffffffffffffffffff021916908373ffffffffffffffffffffffffffffffffffffffff160217905550808273ffffffffffffffffffffffffffffffffffffffff16600073ffffffffffffffffffffffffffffffffffffffff167fddf252ad1be2c89b69c2b068fc378daa952ba7f163c4a11628f55a4df523b3ef60405160405180910390a45050565b6128e88383612710565b6128f56000848484612939565b612934576040517f08c379a000000000000000000000000000000000000000000000000000000000815260040161292b9061462b565b60405180910390fd5b505050565b600061295a8473ffffffffffffffffffffffffffffffffffffffff16612c3f565b15612ab4578373ffffffffffffffffffffffffffffffffffffffff1663150b7a02612983611b46565b8786866040518563ffffffff1660e01b81526004016129a59493929190614809565b6020604051808303816000875af19250505080156129e157506040513d601f19601f820116820180604052508101906129de919061486a565b60015b612a64573d8060008114612a11576040519150601f19603f3d011682016040523d82523d6000602084013e612a16565b606091505b50600081511415612a5c576040517f08c379a0000000000000000000000000000000000000000000000000000000008152600401612a539061462b565b60405180910390fd5b805181602001fd5b63150b7a0260e01b7bffffffffffffffffffffffffffffffffffffffffffffffffffffffff1916817bffffffffffffffffffffffffffffffffffffffffffffffffffffffff191614915050612ab9565b600190505b949350505050565b60007f01ffc9a7000000000000000000000000000000000000000000000000000000007bffffffffffffffffffffffffffffffffffffffffffffffffffffffff1916827bffffffffffffffffffffffffffffffffffffffffffffffffffffffff1916149050919050565b612b36838383612c52565b600073ffffffffffffffffffffffffffffffffffffffff168373ffffffffffffffffffffffffffffffffffffffff161415612b7957612b7481612c57565b612bb8565b8173ffffffffffffffffffffffffffffffffffffffff168373ffffffffffffffffffffffffffffffffffffffff1614612bb757612bb68382612ca0565b5b5b600073ffffffffffffffffffffffffffffffffffffffff168273ffffffffffffffffffffffffffffffffffffffff161415612bfb57612bf681612e0d565b612c3a565b8273ffffffffffffffffffffffffffffffffffffffff168273ffffffffffffffffffffffffffffffffffffffff1614612c3957612c388282612ede565b5b5b505050565b600080823b905060008111915050919050565b505050565b600980549050600a600083815260200190815260200160002081905550600981908060018154018082558091505060019003906000526020600020016000909190919091505550565b60006001612cad84611129565b612cb7919061409b565b9050600060086000848152602001908152602001600020549050818114612d9c576000600760008673ffffffffffffffffffffffffffffffffffffffff1673ffffffffffffffffffffffffffffffffffffffff168152602001908152602001600020600084815260200190815260200160002054905080600760008773ffffffffffffffffffffffffffffffffffffffff1673ffffffffffffffffffffffffffffffffffffffff168152602001908152602001600020600084815260200190815260200160002081905550816008600083815260200190815260200160002081905550505b6008600084815260200190815260200160002060009055600760008573ffffffffffffffffffffffffffffffffffffffff1673ffffffffffffffffffffffffffffffffffffffff16815260200190815260200160002060008381526020019081526020016000206000905550505050565b60006001600980549050612e21919061409b565b90506000600a6000848152602001908152602001600020549050600060098381548110612e5157612e50613bb8565b5b906000526020600020015490508060098381548110612e7357612e72613bb8565b5b906000526020600020018190555081600a600083815260200190815260200160002081905550600a6000858152602001908152602001600020600090556009805480612ec257612ec1614897565b5b6001900381819060005260206000200160009055905550505050565b6000612ee983611129565b905081600760008573ffffffffffffffffffffffffffffffffffffffff1673ffffffffffffffffffffffffffffffffffffffff168152602001908152602001600020600083815260200190815260200160002081905550806008600084815260200190815260200160002081905550505050565b828054612f6990613788565b90600052602060002090601f016020900481019282612f8b5760008555612fd2565b82601f10612fa457805160ff1916838001178555612fd2565b82800160010185558215612fd2579182015b82811115612fd1578251825591602001919060010190612fb6565b5b509050612fdf9190612fe3565b5090565b5b80821115612ffc576000816000905550600101612fe4565b5090565b6000604051905090565b600080fd5b600080fd5b60007fffffffff0000000000000000000000000000000000000000000000000000000082169050919050565b61304981613014565b811461305457600080fd5b50565b60008135905061306681613040565b92915050565b6000602082840312156130825761308161300a565b5b600061309084828501613057565b91505092915050565b60008115159050919050565b6130ae81613099565b82525050565b60006020820190506130c960008301846130a5565b92915050565b600081519050919050565b600082825260208201905092915050565b60005b838110156131095780820151818401526020810190506130ee565b83811115613118576000848401525b50505050565b6000601f19601f8301169050919050565b600061313a826130cf565b61314481856130da565b93506131548185602086016130eb565b61315d8161311e565b840191505092915050565b60006020820190508181036000830152613182818461312f565b905092915050565b6000819050919050565b61319d8161318a565b81146131a857600080fd5b50565b6000813590506131ba81613194565b92915050565b6000602082840312156131d6576131d561300a565b5b60006131e4848285016131ab565b91505092915050565b600073ffffffffffffffffffffffffffffffffffffffff82169050919050565b6000613218826131ed565b9050919050565b6132288161320d565b82525050565b6000602082019050613243600083018461321f565b92915050565b6132528161320d565b811461325d57600080fd5b50565b60008135905061326f81613249565b92915050565b6000806040838503121561328c5761328b61300a565b5b600061329a85828601613260565b92505060206132ab858286016131ab565b9150509250929050565b600080fd5b600080fd5b7f4e487b7100000000000000000000000000000000000000000000000000000000600052604160045260246000fd5b6132f78261311e565b810181811067ffffffffffffffff82111715613316576133156132bf565b5b80604052505050565b6000613329613000565b905061333582826132ee565b919050565b600067ffffffffffffffff821115613355576133546132bf565b5b61335e8261311e565b9050602081019050919050565b82818337600083830152505050565b600061338d6133888461333a565b61331f565b9050828152602081018484840111156133a9576133a86132ba565b5b6133b484828561336b565b509392505050565b600082601f8301126133d1576133d06132b5565b5b81356133e184826020860161337a565b91505092915050565b600060208284031215613400576133ff61300a565b5b600082013567ffffffffffffffff81111561341e5761341d61300f565b5b61342a848285016133bc565b91505092915050565b61343c8161318a565b82525050565b60006020820190506134576000830184613433565b92915050565b6000806000606084860312156134765761347561300a565b5b600061348486828701613260565b935050602061349586828701613260565b92505060406134a6868287016131ab565b9150509250925092565b6000602082840312156134c6576134c561300a565b5b60006134d484828501613260565b91505092915050565b6134e681613099565b81146134f157600080fd5b50565b600081359050613503816134dd565b92915050565b600080604083850312156135205761351f61300a565b5b600061352e85828601613260565b925050602061353f858286016134f4565b9150509250929050565b600080604083850312156135605761355f61300a565b5b600061356e858286016131ab565b925050602061357f85828601613260565b9150509250929050565b600067ffffffffffffffff8211156135a4576135a36132bf565b5b6135ad8261311e565b9050602081019050919050565b60006135cd6135c884613589565b61331f565b9050828152602081018484840111156135e9576135e86132ba565b5b6135f484828561336b565b509392505050565b600082601f830112613611576136106132b5565b5b81356136218482602086016135ba565b91505092915050565b600080600080608085870312156136445761364361300a565b5b600061365287828801613260565b945050602061366387828801613260565b9350506040613674878288016131ab565b925050606085013567ffffffffffffffff8111156136955761369461300f565b5b6136a1878288016135fc565b91505092959194509250565b600080604083850312156136c4576136c361300a565b5b60006136d285828601613260565b92505060206136e385828601613260565b9150509250929050565b7f4f776e61626c653a2063616c6c6572206973206e6f7420746865206f776e6572600082015250565b60006137236020836130da565b915061372e826136ed565b602082019050919050565b6000602082019050818103600083015261375281613716565b9050919050565b7f4e487b7100000000000000000000000000000000000000000000000000000000600052602260045260246000fd5b600060028204905060018216806137a057607f821691505b602082108114156137b4576137b3613759565b5b50919050565b7f4552433732313a20617070726f76656420717565727920666f72206e6f6e657860008201527f697374656e7420746f6b656e0000000000000000000000000000000000000000602082015250565b6000613816602c836130da565b9150613821826137ba565b604082019050919050565b6000602082019050818103600083015261384581613809565b9050919050565b7f4552433732313a20617070726f76616c20746f2063757272656e74206f776e6560008201527f7200000000000000000000000000000000000000000000000000000000000000602082015250565b60006138a86021836130da565b91506138b38261384c565b604082019050919050565b600060208201905081810360008301526138d78161389b565b9050919050565b7f4552433732313a20617070726f76652063616c6c6572206973206e6f74206f7760008201527f6e6572206e6f7220617070726f76656420666f7220616c6c0000000000000000602082015250565b600061393a6038836130da565b9150613945826138de565b604082019050919050565b600060208201905081810360008301526139698161392d565b9050919050565b7f4552433732313a207472616e736665722063616c6c6572206973206e6f74206f60008201527f776e6572206e6f7220617070726f766564000000000000000000000000000000602082015250565b60006139cc6031836130da565b91506139d782613970565b604082019050919050565b600060208201905081810360008301526139fb816139bf565b9050919050565b7f455243373231456e756d657261626c653a206f776e657220696e646578206f7560008201527f74206f6620626f756e6473000000000000000000000000000000000000000000602082015250565b6000613a5e602b836130da565b9150613a6982613a02565b604082019050919050565b60006020820190508181036000830152613a8d81613a51565b9050919050565b7f4552433732314275726e61626c653a2063616c6c6572206973206e6f74206f7760008201527f6e6572206e6f7220617070726f76656400000000000000000000000000000000602082015250565b6000613af06030836130da565b9150613afb82613a94565b604082019050919050565b60006020820190508181036000830152613b1f81613ae3565b9050919050565b7f455243373231456e756d657261626c653a20676c6f62616c20696e646578206f60008201527f7574206f6620626f756e64730000000000000000000000000000000000000000602082015250565b6000613b82602c836130da565b9150613b8d82613b26565b604082019050919050565b60006020820190508181036000830152613bb181613b75565b9050919050565b7f4e487b7100000000000000000000000000000000000000000000000000000000600052603260045260246000fd5b7f596f7520617265206e6f7420746865206f776e6572206f66207468697320746f60008201527f6b656e4964000000000000000000000000000000000000000000000000000000602082015250565b6000613c436025836130da565b9150613c4e82613be7565b604082019050919050565b60006020820190508181036000830152613c7281613c36565b9050919050565b7f4552433732313a206f776e657220717565727920666f72206e6f6e657869737460008201527f656e7420746f6b656e0000000000000000000000000000000000000000000000602082015250565b6000613cd56029836130da565b9150613ce082613c79565b604082019050919050565b60006020820190508181036000830152613d0481613cc8565b9050919050565b7f4552433732313a2062616c616e636520717565727920666f7220746865207a6560008201527f726f206164647265737300000000000000000000000000000000000000000000602082015250565b6000613d67602a836130da565b9150613d7282613d0b565b604082019050919050565b60006020820190508181036000830152613d9681613d5a565b9050919050565b7f50524553414c455f434c4f534544000000000000000000000000000000000000600082015250565b6000613dd3600e836130da565b9150613dde82613d9d565b602082019050919050565b60006020820190508181036000830152613e0281613dc6565b9050919050565b7f4e487b7100000000000000000000000000000000000000000000000000000000600052601160045260246000fd5b6000613e438261318a565b9150613e4e8361318a565b9250827fffffffffffffffffffffffffffffffffffffffffffffffffffffffffffffffff03821115613e8357613e82613e09565b5b828201905092915050565b7f4558434545445f4d41585f414c4c4f5745440000000000000000000000000000600082015250565b6000613ec46012836130da565b9150613ecf82613e8e565b602082019050919050565b60006020820190508181036000830152613ef381613eb7565b9050919050565b6000613f058261318a565b9150613f108361318a565b9250817fffffffffffffffffffffffffffffffffffffffffffffffffffffffffffffffff0483118215151615613f4957613f48613e09565b5b828202905092915050565b7f494e53554646494349454e545f45544800000000000000000000000000000000600082015250565b6000613f8a6010836130da565b9150613f9582613f54565b602082019050919050565b60006020820190508181036000830152613fb981613f7d565b9050919050565b7f5468617420776f756c642065786365656420746865206d61782072657365727660008201527f65642e0000000000000000000000000000000000000000000000000000000000602082015250565b600061401c6023836130da565b915061402782613fc0565b604082019050919050565b6000602082019050818103600083015261404b8161400f565b9050919050565b600061405d8261318a565b91507fffffffffffffffffffffffffffffffffffffffffffffffffffffffffffffffff8214156140905761408f613e09565b5b600182019050919050565b60006140a68261318a565b91506140b18361318a565b9250828210156140c4576140c3613e09565b5b828203905092915050565b7f4552433732314d657461646174613a2055524920717565727920666f72206e6f60008201527f6e6578697374656e7420746f6b656e0000000000000000000000000000000000602082015250565b600061412b602f836130da565b9150614136826140cf565b604082019050919050565b6000602082019050818103600083015261415a8161411e565b9050919050565b600081905092915050565b6000614177826130cf565b6141818185614161565b93506141918185602086016130eb565b80840191505092915050565b60006141a9828561416c565b91506141b5828461416c565b91508190509392505050565b7f53414c455f434c4f534544000000000000000000000000000000000000000000600082015250565b60006141f7600b836130da565b9150614202826141c1565b602082019050919050565b60006020820190508181036000830152614226816141ea565b9050919050565b7f544f4f5f4541524c590000000000000000000000000000000000000000000000600082015250565b60006142636009836130da565b915061426e8261422d565b602082019050919050565b6000602082019050818103600083015261429281614256565b9050919050565b7f4558434545445f4d41585f535550504c59000000000000000000000000000000600082015250565b60006142cf6011836130da565b91506142da82614299565b602082019050919050565b600060208201905081810360008301526142fe816142c2565b9050919050565b7f4f776e61626c653a206e6577206f776e657220697320746865207a65726f206160008201527f6464726573730000000000000000000000000000000000000000000000000000602082015250565b60006143616026836130da565b915061436c82614305565b604082019050919050565b6000602082019050818103600083015261439081614354565b9050919050565b7f4552433732313a206f70657261746f7220717565727920666f72206e6f6e657860008201527f697374656e7420746f6b656e0000000000000000000000000000000000000000602082015250565b60006143f3602c836130da565b91506143fe82614397565b604082019050919050565b60006020820190508181036000830152614422816143e6565b9050919050565b7f4552433732313a207472616e73666572206f6620746f6b656e2074686174206960008201527f73206e6f74206f776e0000000000000000000000000000000000000000000000602082015250565b60006144856029836130da565b915061449082614429565b604082019050919050565b600060208201905081810360008301526144b481614478565b9050919050565b7f4552433732313a207472616e7366657220746f20746865207a65726f2061646460008201527f7265737300000000000000000000000000000000000000000000000000000000602082015250565b60006145176024836130da565b9150614522826144bb565b604082019050919050565b600060208201905081810360008301526145468161450a565b9050919050565b7f4552433732313a20617070726f766520746f2063616c6c657200000000000000600082015250565b60006145836019836130da565b915061458e8261454d565b602082019050919050565b600060208201905081810360008301526145b281614576565b9050919050565b7f4552433732313a207472616e7366657220746f206e6f6e20455243373231526560008201527f63656976657220696d706c656d656e7465720000000000000000000000000000602082015250565b60006146156032836130da565b9150614620826145b9565b604082019050919050565b6000602082019050818103600083015261464481614608565b9050919050565b7f4e487b7100000000000000000000000000000000000000000000000000000000600052601260045260246000fd5b60006146858261318a565b91506146908361318a565b9250826146a05761469f61464b565b5b828204905092915050565b60006146b68261318a565b91506146c18361318a565b9250826146d1576146d061464b565b5b828206905092915050565b7f4552433732313a206d696e7420746f20746865207a65726f2061646472657373600082015250565b60006147126020836130da565b915061471d826146dc565b602082019050919050565b6000602082019050818103600083015261474181614705565b9050919050565b7f4552433732313a20746f6b656e20616c7265616479206d696e74656400000000600082015250565b600061477e601c836130da565b915061478982614748565b602082019050919050565b600060208201905081810360008301526147ad81614771565b9050919050565b600081519050919050565b600082825260208201905092915050565b60006147db826147b4565b6147e581856147bf565b93506147f58185602086016130eb565b6147fe8161311e565b840191505092915050565b600060808201905061481e600083018761321f565b61482b602083018661321f565b6148386040830185613433565b818103606083015261484a81846147d0565b905095945050505050565b60008151905061486481613040565b92915050565b6000602082840312156148805761487f61300a565b5b600061488e84828501614855565b91505092915050565b7f4e487b7100000000000000000000000000000000000000000000000000000000600052603160045260246000fdfea264697066735822122060ef08de55bc7012a68a4b7a4425509d71b79f771b36ed9e9385484b79671fe364736f6c634300080a0033",
  "immutableReferences": {},
  "source": "// SPDX-License-Identifier: MIT\n\npragma solidity ^0.8.10;\n\nimport \"@openzeppelin/contracts/access/Ownable.sol\";\nimport \"@openzeppelin/contracts/utils/Counters.sol\";\nimport \"@openzeppelin/contracts/token/ERC721/extensions/ERC721Burnable.sol\";\nimport \"@openzeppelin/contracts/token/ERC721/extensions/ERC721Enumerable.sol\";\n\n//THINGS THAT NEED TO BE DONE:\n// 1. Set the provenance hash\n// 2. Set the base URI\n// 3. Set the presale live\n// 4. Claim reserved for people\n\ncontract MiamiAfterDark is ERC721Burnable, Ownable, ERC721Enumerable {\n    using Counters for Counters.Counter;\n    Counters.Counter private _tokenIds;\n\n    bool public presaleLive;\n    bool public saleLive;\n\n    uint256 public MAX_MINTABLE_PER_USER = 5;\n    uint256 public PRICE = 0.08 ether;\n    uint256 public constant maxSupply = 10000; // 10k\n    uint256 private _reserved = 200;\n    string public PROVENANCE = \"\";\n\n    string private _tokenBaseURI;\n\n    mapping(address => uint256) public presalerListPurchases;\n\n    constructor() ERC721(\"Miami After Dark\", \"MAD\") {}\n\n    function setBaseURI(string memory URI) external onlyOwner {\n        _tokenBaseURI = URI;\n    }\n\n    function _baseURI() internal view override returns (string memory) {\n        return _tokenBaseURI;\n    }\n\n    function setProvenanceHash(string memory provenanceHash) public onlyOwner {\n        PROVENANCE = provenanceHash;\n    }\n\n    function startPresale() external onlyOwner {\n        presaleLive = true;\n    }\n\n    function startSale() external onlyOwner {\n        saleLive = true;\n    }\n\n    function buy(uint256 tokenQuantity) external payable {\n        require(saleLive, \"SALE_CLOSED\");\n        require(!presaleLive, \"TOO_EARLY\");\n        require(tokenQuantity <= MAX_MINTABLE_PER_USER, \"EXCEED_MAX_ALLOWED\");\n        require(PRICE * tokenQuantity <= msg.value, \"INSUFFICIENT_ETH\");\n\n        require(\n            (_tokenIds.current() + tokenQuantity) <= maxSupply,\n            \"EXCEED_MAX_SUPPLY\"\n        );\n\n        _mintTokensForAddress(msg.sender, tokenQuantity);\n    }\n\n    function claimReserved(uint256 _number, address _receiver)\n        external\n        onlyOwner\n    {\n        require(_number <= _reserved, \"That would exceed the max reserved.\");\n\n        uint256 _tokenId = totalSupply();\n        for (uint256 i; i < _number; i++) {\n            _safeMint(_receiver, _tokenId + i);\n        }\n\n        _reserved = _reserved - _number;\n    }\n\n    function refundMe(uint256 tokenId) external {\n        require(\n            _isApprovedOrOwner(msg.sender, tokenId),\n            \"You are not the owner of this tokenId\"\n        );\n        _burn(tokenId);\n        payable(msg.sender).transfer(PRICE);\n    }\n\n    function presaleBuy(uint256 tokenQuantity) external payable {\n        require(!saleLive && presaleLive, \"PRESALE_CLOSED\");\n        require(\n            presalerListPurchases[msg.sender] + tokenQuantity <=\n                MAX_MINTABLE_PER_USER,\n            \"EXCEED_MAX_ALLOWED\"\n        );\n        require(PRICE * tokenQuantity <= msg.value, \"INSUFFICIENT_ETH\");\n\n        _mintTokensForAddress(msg.sender, tokenQuantity);\n    }\n\n    function _mintTokensForAddress(address to, uint256 tokenQuantity) private {\n        presalerListPurchases[to] += tokenQuantity;\n        for (uint256 i = 0; i < tokenQuantity; i++) {\n            uint256 newItemId = _tokenIds.current();\n            _tokenIds.increment();\n            _mint(to, newItemId);\n        }\n    }\n\n    function getMinted() public view returns (uint256) {\n        return _tokenIds.current();\n    }\n\n    function _beforeTokenTransfer(\n        address from,\n        address to,\n        uint256 tokenId\n    ) internal override(ERC721, ERC721Enumerable) {\n        super._beforeTokenTransfer(from, to, tokenId);\n    }\n\n    function supportsInterface(bytes4 interfaceId)\n        public\n        view\n        override(ERC721, ERC721Enumerable)\n        returns (bool)\n    {\n        return super.supportsInterface(interfaceId);\n    }\n\n    // ** - ADMIN - ** //\n\n    function withdraw() external onlyOwner {\n        payable(owner()).transfer(address(this).balance);\n    }\n}\n",
  "sourcePath": "/home/jasongoodison/dev/solidity/wastemans/wastemans-sol/contracts/MiamiAfterDark.sol",
  "compiler": {
    "name": "solc",
    "version": "0.8.10+commit.fc410830.Emscripten.clang"
  },
  "schemaVersion": "3.4.3",
  "updatedAt": "2021-12-29T16:15:45.732Z",
  "networkType": "ethereum",
  "devdoc": {
    "kind": "dev",
    "methods": {
      "approve(address,uint256)": {
        "details": "See {IERC721-approve}."
      },
      "balanceOf(address)": {
        "details": "See {IERC721-balanceOf}."
      },
      "burn(uint256)": {
        "details": "Burns `tokenId`. See {ERC721-_burn}. Requirements: - The caller must own `tokenId` or be an approved operator."
      },
      "getApproved(uint256)": {
        "details": "See {IERC721-getApproved}."
      },
      "isApprovedForAll(address,address)": {
        "details": "See {IERC721-isApprovedForAll}."
      },
      "name()": {
        "details": "See {IERC721Metadata-name}."
      },
      "owner()": {
        "details": "Returns the address of the current owner."
      },
      "ownerOf(uint256)": {
        "details": "See {IERC721-ownerOf}."
      },
      "renounceOwnership()": {
        "details": "Leaves the contract without owner. It will not be possible to call `onlyOwner` functions anymore. Can only be called by the current owner. NOTE: Renouncing ownership will leave the contract without an owner, thereby removing any functionality that is only available to the owner."
      },
      "safeTransferFrom(address,address,uint256)": {
        "details": "See {IERC721-safeTransferFrom}."
      },
      "safeTransferFrom(address,address,uint256,bytes)": {
        "details": "See {IERC721-safeTransferFrom}."
      },
      "setApprovalForAll(address,bool)": {
        "details": "See {IERC721-setApprovalForAll}."
      },
      "symbol()": {
        "details": "See {IERC721Metadata-symbol}."
      },
      "tokenByIndex(uint256)": {
        "details": "See {IERC721Enumerable-tokenByIndex}."
      },
      "tokenOfOwnerByIndex(address,uint256)": {
        "details": "See {IERC721Enumerable-tokenOfOwnerByIndex}."
      },
      "tokenURI(uint256)": {
        "details": "See {IERC721Metadata-tokenURI}."
      },
      "totalSupply()": {
        "details": "See {IERC721Enumerable-totalSupply}."
      },
      "transferFrom(address,address,uint256)": {
        "details": "See {IERC721-transferFrom}."
      },
      "transferOwnership(address)": {
        "details": "Transfers ownership of the contract to a new account (`newOwner`). Can only be called by the current owner."
      }
    },
    "version": 1
  },
  "userdoc": {
    "kind": "user",
    "methods": {},
    "version": 1
  }
}